:020000040800F2
:10000000B0050020E1A00008FDA0000801A1000843
:1000100005A1000809A100080DA1000800000000CA
:1000200000000000000000000000000011A1000816
:1000300015A100080000000019A100088D9E00080D
:100040001DA1000821A1000825A1000829A1000880
:100050002DA1000831A1000835A1000839A1000830
:100060003DA1000841A1000845A100089B9E000891
:1000700049A100084DA1000851A10008A19E000857
:1000800055A1000859A100085DA1000861A1000860
:10009000A79E000865A1000869A100086DA10008DD
:1000A00071A10008CB9E000875A1000879A1000885
:1000B000E59E00087DA1000881A1000885A1000837
:1000C00089A100088DA1000891A1000895A1000850
:1000D00099A100089DA10008A1A10008A5A1000800
:1000E000A9A10008ADA10008B1A10008000000000E
:1000F0000000000000000000000000000000000000
:100100000000000000000000B5A10008B9A100082F
:10011000199F00082F9F0008BDA10008C1A1000879
:10012000C5A10008C9A10008CDA10008D1A10008FF
:10013000D5A100080000000000000000D9A10008BF
:10014000DDA10008E1A10008E5A10008E9A100087F
:1001500000F5E0700268914203D343689A18914217
:1001600002D380680028F5D17047DFF8580701688E
:1001700091B94FF4803181604FF4805141604FF06C
:10018000FF31C16001610421DFF83C274161C2F801
:10019000BC11DFF8381701600120704701F1080336
:1001A00013F0070305D001F10803C3F1080303F0BE
:1001B00007035918D21A8161C26042F001034B60F3
:1001C000511828234B60DFF8FC160969C16170479C
:1001D0002DE9F84F064601F1080010F0070008BFAE
:1001E000884607D001F10800C0F1080000F00700C0
:1001F00000EB010802F1080010F0070006D002F140
:100200000800C0F1080000F0070082181546A5EBB1
:100210000800A0EB030903EB080B43F00300C8F848
:100220000400AB4528BF01F00BFA2879C00758BF7E
:1002300001F006FAB9F1100F38BF01F001FAB06908
:10024000854209D1F0684844F060C6F818B040F023
:100250000100CBF804006DE1706985420BD1B068F4
:100260004844B060C6F814B040F00101CBF8041067
:1002700040F80B005EE1686800F00301012940F0DE
:10028000AD80C008C0000190C00820283AD2D5F83F
:1002900008A0EF680090BD4208BF01F0D1F95545B4
:1002A00008BF01F0CDF968680099C008C000B0EB44
:1002B000C10F18BF01F0C4F9009806EBC00000F1AF
:1002C00028018A4507D031698A45C0F08280DAF872
:1002D0000C10A9427DD1574506D1009A3068012102
:1002E00091408843306076E02830874205D03069FD
:1002F00087426ED3B868A8426BD1CAF80C70C7F8B1
:1003000008A068E0EF68D5F818A0AF420CD0A86844
:100310003169884223D3C168A94204BFB968A942A0
:100320001DD1C760B8601CE005F11400076837B93B
:1003300005F110000768A7B101E00846076807F15A
:1003400014010A68002A02BF07F110010A68002A96
:10035000F3D13169884202D30021016001E001F04C
:100360006FF9BAF1000F36D0E86906EB800000F5AE
:10037000987001688D4208D10760A7B9EA69706872
:10038000012191408843706025E03069824508D39F
:10039000DAF81000A84214BFCAF81470CAF8107036
:1003A00001E001F04DF9B7B13069874211D3C7F8C8
:1003B00018A0296929B1814226BF39618F6101F0F6
:1003C0003FF9686938B13169884202D37861876141
:1003D00001E001F035F90198451981446868400849
:1003E000400068604FEAD90549F00100CBF80400ED
:1003F00049F80B90202D23D206EBC50000F1280709
:10040000BA46B9F1100F38BF01F01AF9306820FA76
:1004100005F1C90704D40121A9400843306006E072
:10042000B868316988422CBF824601F009F9C7F8E3
:1004300008B0CAF80CB0CBF808A0CBF80C7079E083
:100440005FEA192108BF002023D0B1F5803F28BF03
:100450001F201ED2A1F58070000C00F00800814022
:10046000A1F58052120C02F004029140A1F58043E4
:100470001B0CC0F10E0003F00203801AC01A994051
:1004800000EBD130C11D29FA01F202F0010101EBAC
:100490004000CBF81C000022CBF81420CBF8102031
:1004A00006EB8001726822FA00F3DB0701F5987110
:1004B00007D4012303FA00F010437060C1F800B0C4
:1004C0001DE009681F280EBF00204008C0F1190078
:1004D00009FA00F000E011464A68D208D2004A4505
:1004E00014D0C20F01EB820202F1100340001A681F
:1004F000002AF0D1306983421AD3C3F800B0CBF898
:100500001810CBF80CB0CBF808B013E0326988684B
:10051000914228BF90420BD3C0F80CB0C1F808B08C
:10052000CBF80800CBF80C100020CBF8180001E045
:1005300001F086F808F10800BDE8E68F2DE9FA4DD4
:100540000546DFF8800384B0006808B9FFF70DFEA8
:10055000DFF870030499806841182F31401E21EAAA
:1005600000000499814280F0A88105F5D876B16831
:1005700039B132688018824280F09F818142C0F098
:100580009C8101F065F800281EBF0446D0F8008069
:1005900014F1010F00F091813068716840443060BF
:1005A000814238BF01467160A86980BB286908B1E3
:1005B000844200D22C610020F0613461C6F81480BE
:1005C00005F12801BF48006868624FF0FF302862DB
:1005D000002001F10802C9601160801C1031202840
:1005E000D2609260F5D3B848854203D1A8F12802C1
:1005F000214629E055F8040CC00805EBC000A0F125
:10060000080108EB0400401AA0F128021CE005F5DF
:10061000E071084600E08068D0B1026843689A182B
:100620009442F8D1027B120712D4AA6903689A4255
:100630000ED347683B449A420AD208EB0701416057
:10064000E868A96908EB00022846FFF7A7FD1EE14C
:1006500028698442084638BF2C6108EB040100E099
:10066000806880B102688A42FAD1017B09070AD406
:1006700004604168414441602146049B284606B01D
:10068000BDE8F04DA4E5AF6939462846FFF760FDA7
:1006900001684068401802902F3800F1080111F0FD
:1006A000070105D000F10801C1F1080101F00701BF
:1006B000081807F11001884234BF00970090009895
:1006C0000830019004F10801009800F1180A11F0B7
:1006D00007014FF0000BA8F1280005D004F1080134
:1006E000C1F1080101F007010A19401AAA61E86086
:1006F00040F0010151608018282141607148006973
:10070000E861019810F0070018BF00F099FF009908
:100710001B20486005F5E071B1E80C500198A0E895
:100720000C503461C6F81480C6F81CB00198B06152
:10073000029800E08A460722CAF804200AF1040160
:100740000A1D82420BF1010BF4D3BBF1020FB8BFBB
:1007500000F076FF0098B84200F09980C01BC119E4
:10076000C4084A68520852004A6040F001017960AA
:10077000C051202C20D205EBC40101F12806B0465F
:10078000102838BF00F05CFF286820FA04F1C90780
:1007900004D40121A1400843286006E0B06829691B
:1007A00088422CBF804600F04BFFB760C8F80C7041
:1007B000C7F80880FE606AE0010A08BF002223D063
:1007C000B1F5803F28BF1F221ED2A1F58072120C06
:1007D00002F008029140A1F580531B0C03F00403C2
:1007E0009940A1F58044240CC2F10E0204F00204E9
:1007F000D21A121BA14002EBD131CA1D20FA02F31A
:1008000003F0010202EB4102FA6100237B613B61CC
:1008100005EB82016B6823FA02F4E40701F5987195
:1008200005D401209040184368600F601CE00968FF
:100830001F2A0EBF00225208C2F1190200FA02F26A
:1008400000E019464B68DB08DB00834210D0D30F71
:1008500001EB830303F1100452002368002BF0D155
:100860002869844211D32760B961FF60BF600EE040
:100870002A698868914228BF904206D3C7608F607A
:10088000B860F9600020B86101E000F0D9FEE868C6
:100890000499814211D2401AE860A969049A521859
:1008A000AA6140F001005060049840F003004860E5
:1008B00006B001F10800BDE8F08D002006B0BDE8EB
:1008C000F08D0000D0130020B40B00206859883C44
:1008D0002DE9F04D0446002688465FEA1820C8F14D
:1008E000000B08BF002123D0B0F5803F28BF1F2197
:1008F0001ED2A0F58071090C01F008018840A0F516
:100900008052120C02F004029040A0F580431B0CB0
:10091000C1F10E0103F00203891AC91A984001EBD4
:10092000D030C11D28FA01F202F0010101EB4001B3
:1009300004EB8100D0F8300118B31F290EBF00224C
:100940004A08C2F1190208FA02F2002300E052003C
:100950004568ED08ED00A5EB08055D4503D25FEAAB
:10096000050B06460BD04569D70F00EB8700002D1D
:1009700000691CBF85422B460028E8D11846B8BB49
:10098000C6BB0120884040004142084361680840DE
:1009900000F0638141420840401E010B01F010014C
:1009A000C840420902F00802D040830803F0040363
:1009B000D840450805F002055118E8405918C0F321
:1009C000400729443944F840401804EB8000D0F82F
:1009D00030010DE008464168C908C900A1EB0801D3
:1009E00059453CBF8B46064601690029F2D1406952
:1009F0000028F0D1002E00F03081A068A0EB0800A4
:100A0000834580F02A8120698642C0F02481706885
:100A1000C008C00008EB0B0108EB0605884218BFB0
:100A200000F00EFEAE4280F01681F768D6F818A0EE
:100A3000B7420CD0B0682169884223D3C168B14263
:100A400004BFB968B1421DD1C760B8601CE006F1AF
:100A50001400076837B906F110000768A7B101E074
:100A60000846076807F114010A68002A02BF07F167
:100A700010010A68002AF3D12169884202D30021BB
:100A8000016001E000F0DCFDBAF1000F38D0F06940
:100A900004EB800000F5987001688E4209D1076070
:100AA000380014D1F2696068012191408843606088
:100AB00026E02069824508D3DAF81000B04214BF5E
:100AC000CAF81470CAF8107001E000F0B9FDBFB1A7
:100AD0002069874212D3C7F818A0306930B1216964
:100AE000884226BF3861876100F0AAFD706938B17D
:100AF0002169884202D37861876101E000F0A0FD9E
:100B0000BBF1100F0CD208EB0B0040F0030070603B
:100B100008EB0B008019416841F00101416096E04B
:100B200048F0030070604BF0010068604FEADB00A2
:100B30004BF805B020281DD204EBC00101F12807B5
:100B4000216821FA00F2D207BB4605D4012202FA3D
:100B500000F00843206006E0B868216988422CBF95
:100B6000834600F06DFDBD60CBF80C50C5F808B0B1
:100B7000EF606CE05FEA1B2108BF002023D0B1F5D5
:100B8000803F28BF1F201ED2A1F58070000C00F00E
:100B900008008140A1F58052120C02F0040291403D
:100BA000A1F580431B0CC0F10E0003F00203801A74
:100BB000C01A994000EBD130C11D2BFA01F202F0AE
:100BC000010101EB4000E86100226A612A6104EB47
:100BD0008001626822FA00F3DB0701F5987106D400
:100BE000012303FA00F0104360600D601CE0096807
:100BF0001F280EBF00204008C0F119000BFA00F0BA
:100C000000E011464A68D208D2005A4510D0C20FFF
:100C100001EB820202F1100340001A68002AF0D1B1
:100C20002069834211D31D60A961ED60AD600EE0C3
:100C300022698868914228BF904206D3C5608D60C2
:100C4000A860E9600020A86101E000F0F9FC06F16D
:100C50000800BDE8F08D00F0F3FC0020BDE8F08D49
:100C60002DE9F84F04468846606841420840401E1E
:100C7000010B01F01001C840420902F00802D04007
:100C8000830803F00403D840450805F00205511815
:100C9000E8405918C0F3400629447118F040401844
:100CA00004EB8000D0F830014168C908C90006464D
:100CB000A1EB080A09E008464168C908C900A1EB90
:100CC000080151453CBF8A46064601690029F2D118
:100CD00040690028F0D120698642C0F0C480706865
:100CE000C00808EB0A09C00008EB060B484518BF0E
:100CF00000F0A6FC5E4580F0B680F768B569B742A3
:100D00000CD0B0682169884223D3C168B14204BFC6
:100D1000B968B1421DD1C760B8601CE006F114008B
:100D2000076837B906F110000768A7B101E0084667
:100D3000076807F114010A68002A02BF07F11001D1
:100D40000A68002AF3D12169884202D30021016098
:100D500001E000F075FC002D34D0F06904EB800058
:100D600000F5987001688E4209D10760380011D1F2
:100D7000F2696068012191408843606022E0206947
:100D8000854205D32869B04214BF6F612F6101E02D
:100D900000F056FCB7B12069874211D3BD613069BC
:100DA00030B12169884226BF3861876100F048FC74
:100DB000706938B12169884202D37861876101E0A6
:100DC00000F03EFCBAF1100F09D249F00300706048
:100DD00009EB0600416841F0010141603FE048F045
:100DE000030070604AF00100CBF804004AF80BA041
:100DF000D4F808804FEAD805202D28BF00F020FC49
:100E0000B8F1000F27D0D4F81490009504EBC5007A
:100E100000F128052F46B8F1100F38BF00F010FC84
:100E20002068009920FA01F2D10705D4009A012127
:100E300091400843206006E0A868216988422CBFE1
:100E4000074600F0FDFBC5F80890C7F80C90C9F8FC
:100E50000870C9F80C50C4F808A0C4F814B006F122
:100E60000800BDE8F28F00F0EBFB0020BDE8F28F38
:100E70002DE9F04F83B00546C046C046F52DDFF89A
:100E8000B84780F002810B2D31BF102705F10B0010
:100E9000C708FF002068FE08F04010F0030F42D0A2
:100EA000C04300F00100861904EBC60000F12808D9
:100EB000F700D8F808506868C008C000B84218BFEA
:100EC00000F0BEFBD5F80890454508BF00F0B8FB20
:100ED0004D4508BF00F0B4FB6868C008C000B842C8
:100EE00018BF00F0ADFBC84505D120680121B14015
:100EF000884320600DE02069814508D3D9F80C00B3
:100F0000A84204D1C8F80890C9F80C8001E000F0AC
:100F100097FB47F00300686078190835416841F095
:100F200001014160F9E0A168B94280F0C080002869
:100F300000F0A280012505FA06F149004A42B040BE
:100F40001143084041420840401E010B01F01001CE
:100F5000C840420902F00802D040830803F00403AD
:100F6000D840460806F002065118F0405918C0F360
:100F700040087118414420FA08F000EB010804EB26
:100F8000C80000F128094FEAC80AD9F8086070685B
:100F9000C008C000504518BF00F052FBD6F808B09A
:100FA0004E4508BF00F04CFB5E4508BF00F048FB13
:100FB0007068C008C000504518BF00F041FBD9451B
:100FC00005D1206805FA08F1884320600DE020690A
:100FD000834508D3DBF80C00B04204D1C9F808B04F
:100FE000CBF80C9001E000F02BFB47F003007060A1
:100FF000AAEB0708B819019048F001000199486070
:10100000019848F80080A7684FEAD70ABAF1200F84
:1010100028BF00F015FB47B3CDF800A004EBCA00D1
:10102000D4F8149000F1280AD346102F38BF00F0EE
:1010300007FB2068009920FA01F2D10705D4009936
:1010400005FA01F10843206007E0DAF80800216999
:1010500088422CBF834600F0F3FACAF80890CBF818
:101060000C90C9F808B0C9F80CA0C4F8088006F1C3
:1010700008050198606150E06068C0B339462046B9
:10108000FFF7EEFD050012D047E015F1400F28BF35
:101090004FF0FF370BD205F10B00C7086068FF0067
:1010A00028B139462046FFF713FC050035D1A0686A
:1010B000B8421CD3C11B626910290AD3B8186061F9
:1010C000A16041F001034360095047F00300506004
:1010D0000AE00021A160616140F0030151608018C5
:1010E000416841F00101416002F1080515E0E06846
:1010F00087420DD2C01BA169E0607A18A26140F05E
:101100000100506001F1080547F00300486004E069
:1011100039462046FFF712FA0546C046C046284623
:1011200003B0BDE8F08F00B970472DE9F047A0F19A
:101130000804C046C046DFF8005528698442C0F064
:101140007482616801F00302012A00F06E82CA080D
:101150004FEAC208CA0708EB040936D4226811F026
:10116000030F00F06482A41A84429044C0F05D82B0
:1011700069698C4200F0D880D608202E70D2D4F84D
:101180000CA0A768544508BF00F05AFABC4208BF3B
:1011900000F056FA6068C008C000B0EBC60F18BF78
:1011A00000F04EFA05EBC60000F128018F4205D091
:1011B00029698F4251D3F968A1424ED1BA453DD138
:1011C00028680121B140884328604C4580F02D8279
:1011D000D9F80400C10740F12882810700F17A8123
:1011E000A969894540F0B580E868AC614044E86091
:1011F00040F00101616069698C4202D1002169619E
:10120000A960E969814280F01282DFF83004006849
:1012100008B9FEF7AAFFA969002900F00882E8686A
:10122000292824BF2846FEF793FFE869E968884229
:1012300080F0FD814FF0FF30E861F8E12830824511
:1012400006D02869824508D3DAF80800A04204D104
:10125000C7F80CA0CAF80870B7E700F0F1F9B4E7D6
:10126000E768A669A7420BD0A168814222D3C8686B
:10127000A04204BFB868A0421CD1CF60B9601BE097
:1012800004F114010F6837B904F110010F689FB120
:1012900001E011460F6807F114021368002B02BF2A
:1012A00007F110021368002BF3D1814202D3002012
:1012B000086001E000F0C4F9002E86D0E06905EB7B
:1012C000800000F5987001688C4209D107603800F1
:1012D00011D1E2696868012191408843686074E730
:1012E0002869864205D33069A04214BF776137610F
:1012F00001E000F0A5F9002F3FF467AF28698742AD
:10130000ABD3BE61216929B1814226BF39618F61AA
:1013100000F096F9606900283FF457AF29698842C8
:101320009BD37861876150E799F8040000F00300CF
:1013300003287FF44AAFC5F80880D9F804004008B4
:101340004000C9F8040048F00100606048F80480DB
:101350006DE16969894508D1A8686C614044A8605D
:1013600040F001016160005161E1C008C0004FEA36
:10137000D00ABAF1200F804436D2D9F80C70D9F8CF
:101380000860B94508BF00F05BF9B14508BF00F03F
:1013900057F9D9F80400C008C000B0EBCA0F18BF55
:1013A00000F04EF905EBCA0000F128018E4206D08C
:1013B00029698E42C0F08180F16849457DD1B742EC
:1013C00006D12868012101FA0AF18843286076E0F5
:1013D0002830874205D0286987426ED3B8684845CF
:1013E0006BD1F760BE606AE0D9F80C70D9F818606C
:1013F0004F450DD0D9F808002969884223D3C16828
:10140000494504BFB96849451DD1C760B8601CE0B3
:1014100009F11400076837B909F110000768A7B18E
:1014200001E00846076807F114010A68002A02BFB4
:1014300007F110010A68002AF3D12969884202D312
:101440000021016001E000F0FBF8002E37D0D9F850
:101450001C0005EB800000F59870016889450AD1F1
:101460000760380012D1D9F81C206868012191402A
:101470008843686023E02869864205D3306948457F
:1014800014BF7761376101E000F0DAF8BFB1286975
:10149000874212D3BE61D9F8101029B1814226BF0C
:1014A00039618F6100F0CCF8D9F8140038B129699E
:1014B000884202D37861876101E000F0C1F848F00A
:1014C0000100606048F80480686984420BD1C5F867
:1014D0000880ACE040084000C9F8040048F0010072
:1014E000606048F804804FEAD807202F22D205EB2D
:1014F000C70000F128094E46B8F1100F38BF00F0C0
:101500009FF8286820FA07F1C90704D40121B940DF
:101510000843286007E0D9F80800296988422CBFF1
:10152000064600F08DF8C9F80840F460A660C4F8DB
:101530000C907CE05FEA182008BF002123D0B0F5B2
:10154000803F28BF1F211ED2A0F58071090C01F039
:1015500008018840A0F58052120C02F0040290406D
:10156000A0F580431B0CC1F10E0103F00203891AA0
:10157000C91A984001EBD030C11D28FA01F202F0DF
:10158000010101EB4001002262612261E16105EB92
:1015900081006A6822FA01F3DB0700F5987006D42F
:1015A000012303FA01F11143696004601CE0006843
:1015B0001F290EBF00214908C1F1190108FA01F1E4
:1015C00000E010464268D208D200424510D0CA0F4F
:1015D00000EB820202F1100349001A68002AF0D1E0
:1015E00029698B4211D31C60A061E460A4600EE005
:1015F0002A698168904228BF914206D3CC608460FA
:10160000E060A1600020A06101E000F019F8286A04
:10161000401E28620BD1D5F8C80100E08068002880
:10162000FCD14FF0FF30286201E000F009F8C0461D
:10163000C046BDE8F0870000B40B0020D0130020A6
:10164000012000F01BB80268531C03601170704742
:101650000749086808B1002070470648C008C00064
:1016600008600549C908C900091A0160704700BF30
:1016700068140020B7050020B007002080B5C046E0
:10168000C046024A11001820ABBEFBE7260002004C
:101690002DE9F04F80460FF23060A5B015461E468A
:1016A000D0E90023CDE91223002004910D900DF123
:1016B000500A6FF0004900E065190020ADF8020003
:1016C00012AB4FF0FF3229460DF1020001F093F802
:1016D0000446012C04DA2878441EA441E443E40FB4
:1016E000BDF8020025280CBFA4F1010BA346BBF1F5
:1016F000010F0EDB2F4617F8011B0498C047002886
:10170000049000F0F3800D98401CBBF1010B0D908C
:10171000F1D1BDF80200252807D1002007900890DC
:1017200009900A900B900C9005E00028C4D10D9808
:10173000D2E240F0010015F8011F2029F9D0232939
:101740000DD02B2904D02D2906D030290AD00CE049
:1017500040F0020080B2EEE740F00400FAE740F00B
:101760000800F7E740F01000F4E72A290ED13168AD
:10177000316051F8042B3160002A0F9204D5514298
:1017800040F004000F9180B26D1C11E000210F9118
:1017900009E00F99494505D001EB810302EB4301B4
:1017A00030390F916D1C2A78A2F130010A29F0D34B
:1017B00029782E2903D04FF0FF310E911DE015F846
:1017C000011F2A2907D1316831606D1C51F8042BA3
:1017D00031600E9211E000210E9109E00E99494509
:1017E00005D001EB810302EB430130390E916D1CF2
:1017F0002A78A2F130010A29F0D3ADF840000FF2A7
:10180000D040297801F008F808B115F8010B8DF8DF
:1018100042009DF84200682802BF297868296220AA
:1018200005D06C2804BF28786C2803D171208DF86E
:1018300042006D1C14A8069015F8014BB4F1250068
:101840002AD01C3800F0D480001F022840F2D0803B
:10185000133800F0F580093800F0CA80801E00F0CF
:101860005C81401E00F03581401E022840F2C0809D
:10187000001F00F02E81401F00F08B80401E00F002
:10188000DF80401E35D0C01E0BD0801E00F0D880F7
:10189000C01E00F0D58063E125208DF850000120A6
:1018A00067E19DF842006C283068306014D050F831
:1018B000047B306005970E9C002C04D5384600F060
:1018C000B7FF044606E022460021384600F0CCFF70
:1018D00000B1C41B08944DE150F8042B306002A9FC
:1018E000404600F033FA002840F144814FF0FF30C9
:1018F000F2E1316831603C2451F8040B3160002181
:10190000CDE9020114A80590DDE90201069F11B995
:1019100008B90E9AB2B10206120FA0EB02123032D1
:10192000D2B2631E3A2AA8BF27320009DA5540EA2C
:101930000170090908BF00281C4603D0059AE31965
:101940009A42E8D3E0190590C4F13C010E98089141
:10195000814209DA401A0A904FF6EF71BDF8400053
:101960000840ADF8400005E1002840F103819DF8F2
:10197000400000F01400102840F0FC800F98079AF7
:10198000801A0A9A801A441A012CC0F2F3800A9431
:10199000F0E09DF8420062281AD0682806D06A2834
:1019A0000CD06C281CD0712808D019E03068306049
:1019B00050F8041B30600D980880DBE03068306020
:1019C00050F8042B30600D98C117C2E90001D1E036
:1019D0003068306050F8041B30600D980870C9E022
:1019E0003068306050F8041B30600D980860C1E02A
:1019F0003068C01D20F007023260D2E900010832D1
:101A00003260CDE90201002902D507982D210AE0B4
:101A1000BDF84000810702D507982B2103E0C007DD
:101A200005D50798202100F80A10401C079014A83B
:101A3000079908180590214602A800F091FB99E04B
:101A40009DF842006C280DD0712818BF6A2809D172
:101A50003068C01D20F007023260D2E90001083270
:101A6000326005E03168316051F8040B31600021CB
:101A7000CDE902019DF84200682803D1DDE90201A9
:101A800080B20BE0622803D1DDE90201C0B205E0BB
:101A9000742818BF7A2804D1DDE902010021CDE9BC
:101AA00002019DF8400000072ED5DDE90201002962
:101AB00008BF002828D044F02000782824D10798B7
:101AC000302100F80A10401C411C079100F80A4020
:101AD0001AE09DF84200314600F001F9CDE902011B
:101AE000002902DA07982D210AE0BDF8400081079D
:101AF00002D507982B2103E0C00705D507982021C0
:101B000000F80A10401C079014A8079908180590BF
:101B1000214602A800F0A0FA2CE09DF842006C28B3
:101B200009D0012007903068306050F8041B306005
:101B30008DF850101EE03068306001AA50F8041B88
:101B40003060ADF804100020ADF8060002A94FF097
:101B5000FF300E90404600F0F9F800280AD5C5E69F
:101B600025208DF85000012007901CB18AF8014013
:101B7000022007900F980799401A0A99401A08996D
:101B8000401A0B99401A0999401A0C99441A9DF869
:101B90004000400710D42020012C8DF800000BDB02
:101BA000274601236A4602A9404600F000FE0028AD
:101BB0007FF49CAE7F1EF4D1DDF81CB0BBF1000FAA
:101BC00014AF0DD017F8011B0498C04700280490EB
:101BD0003FF48CAE0D98401CBBF1010B0D90F1D180
:101BE00030208DF800000A9F012F0ADB01236A468E
:101BF00002A9404600F0DBFD00287FF477AE7F1E8F
:101C0000F4D1DDF820B0059FBBF1000F0DD017F81F
:101C1000011B0498C047002804903FF467AE0D985C
:101C2000401CBBF1010B0D90F1D130208DF800006C
:101C30000B9F012F0ADB01236A4602A9404600F0F0
:101C4000B6FD00287FF452AE7F1EF4D105980899A6
:101C5000DDF824B00F18BBF1000F0DD017F8011BF1
:101C60000498C047002804903FF440AE0D98401CF3
:101C7000BBF1010B0D90F1D130208DF800000C9FCD
:101C8000012F0ADB01236A4602A9404600F08FFDBE
:101C900000287FF42BAE7F1EF4D19DF84000400752
:101CA0007FF50BAD2020012C8DF80000FFF605AD6F
:101CB00001236A4602A9404600F079FD00287FF41E
:101CC00015AE641EF4D1F8E400000000000000002E
:101CD000686A6C747A4C000025B0BDE8F08F622809
:101CE00026D068281DD06A2808D06C2827D07128F3
:101CF00004D0742823D07A280CD020E00868C01DB6
:101D000020F007000860D0E9002308300860194679
:101D1000104670470A680A6052F8040B0A600021F6
:101D200070470A680A6052F8040B0A6000B20BE0C0
:101D30000A680A6052F8040B0A6040B204E00A68BC
:101D40000A6052F8040B0A60C11770472DE9F44F7E
:101D50000D4694B0D5F830A0BAF1000F804648BFC8
:101D60006FF0004A00F0ACFD696B401801900FF66F
:101D70006C20D0E90023CDE9022395F83800400714
:101D800002D40198412805D240200DF1100901909C
:101D9000002609E0FFF76CF85FEA0009F8D14FF080
:101DA000FF3056E1AAEB040ABAF1010FC0F2CE806F
:101DB0001498018802AA0DF1010000F086FD0028A8
:101DC000044600F1DE801498008810B9641E00F10A
:101DD000D880A245C0F2BA80686901992218914260
:101DE00080F0A2806E634042296A401AA969401AB5
:101DF000696A401AE969401AA96A461A95F83800D2
:101E0000400710D42020012E8DF800000BDB374650
:101E100001236A462946404600F0C9FC002840F0EC
:101E2000B0807F1EF4D1D5F814B0BBF1000F4F463F
:101E30000DD017F8011BA868C0470028A86000F063
:101E4000A080E86A401CBBF1010BE862F1D13020B0
:101E50008DF800002F6A012F0ADB01236A4629460C
:101E6000404600F0A4FC002840F08B807F1EF4D197
:101E7000D5F818B0EF68BBF1000F0CD017F8011BB4
:101E8000A868C0470028A8607BD0E86A401CBBF166
:101E9000010BE862F2D130208DF800006F6A012F4B
:101EA00009DB01236A462946404600F080FC0028F1
:101EB00067D17F1EF5D1E868A969D5F81CB00F1865
:101EC000BBF1000F0CD017F8011BA868C047002811
:101ED000A86056D0E86A401CBBF1010BE862F2D161
:101EE00030208DF80000AF6A012F09DB01236A461C
:101EF0002946404600F05BFC002842D17F1EF5D108
:101F000095F8380040070DD52020012E8DF80000EF
:101F100008DB01236A462946404600F048FC80BBA6
:101F2000761EF6D100266E61224668690DF1010128
:101F3000484400F0D7FC6869201868611498801C38
:101F40001490801E008800287FF42CAF686B6969AC
:101F5000401A296A401AA969401A696A401AE9694F
:101F6000401AA96AA0EB010A95F83800400710D47E
:101F7000BAF1010F0DDB5446A8682021C047A860C4
:101F800010B94FF0FF365DE0E86A401C641EE8625D
:101F9000F2D16B694A462946404600F008FC002809
:101FA000EFD12C6A012C0ADBA8683021C047002839
:101FB000A860E6D0E86A401C641EE862F4D1AB6910
:101FC000EA682946404600F0F2FB0028D9D16C6A45
:101FD000012C0ADBA8683021C0470028A860D0D0B7
:101FE000E86A401C641EE862F4D1E868A969EB69FC
:101FF0000A182946404600F0DAFB0028C1D1AC6A35
:10200000012C0ADBA8683021C0470028A860B8D09E
:10201000E86A401C641EE862F4D195F83800400775
:102020000ED5BAF1010F0BDBA8682021C0470028AC
:10203000A860A6D0E86A401CBAF1010AE862F3D1B0
:102040006E616E6304A881451CBF4846FFF76BF8BC
:10205000304615B0BDE8F08F2DE9FA4E05460A4628
:102060002F696F2A08BF082405D041F02000782886
:1020700014BF0A2410243C26D5E90001642A18BFA5
:10208000692A81468A4605D1002903DAD9F1000977
:102090006AEB4A0ABAF1000F08BFB9F1000F0CD180
:1020A000286B50B9082C36D195F83800000732D586
:1020B00030203B2687F83B002DE0E3174846514689
:1020C000224600F04BFCA4FB0023A9EB02023032B5
:1020D000D2B2A6F1010B3A2A5E4603DB9DF800302E
:1020E000513B9A180BF8072081465FEA010A08BFA6
:1020F000B9F1000F03D0E868F1198842DDD3082C4C
:1021000009D195F83800000705D5F05D302802D0D8
:10211000761E3020F055C6F13C00A861F119E96047
:10212000296B884208DA081A28624FF6EF71288F67
:1021300008402887BDE8F38E00290ED595F83810A1
:1021400001F01401102908D1696B6A69891A2A6A99
:10215000891A0E1A012EA8BF2E62BDE8F38E000068
:102160002DE9F24F04468EB0D4E90001CDE9020119
:1021700004AF9DF8380040F0200BBBF1610F0AD08E
:10218000206B002848BF062004D408BFBBF1670FAE
:1021900001D1012020636168C1F30A5040F2FF724F
:1021A00090421CD1080304BF2068002809D10320F5
:1021B000A0619DF8380061381A2836D30FF23061DB
:1021C00008E00320A0619DF8380061381A2829D35F
:1021D0000FF21461E068032200F084FBBEE10128E5
:1021E00016DA204600F031FC012811DB0025002022
:1021F000BBF1610F20D1E168302201F8012B4A1CAC
:10220000E2609DF83820612A0CBF782258220FE046
:10221000626840F2FE3161F31E52451A62604FF06F
:10222000FF30E5E70FF2BC51D4E70FF2C051D1E720
:102230000A706169891C616110B90026002584E17A
:10224000BBF1610F40F09880206B00284CBF212625
:10225000461CD4E900ABDDE902010022002300F0B6
:1022600015FC36B23ABF8BF00040CDE902A0CDE9B3
:1022700002AB06F101082D1FB8F1010F8DF81020F7
:102280000DF1110736DBDDE902010022002300F029
:1022900015FC2FD21C2102A800F028FCDDE9020168
:1022A00000F0AAFCA8F10708B8F1010F814609DB8C
:1022B00000F0CEFC02460B46DDE9020100F0E0FC36
:1022C000CDE90201F81D072105E009F00F0200F831
:1022D000012D4FEA2919B9F1010F01DB491EF4D58F
:1022E000491E5CBF002200F8012DF9D5C71DB8F1C9
:1022F000010FC8DA0DF11100391AB142B8BF0E460C
:1023000036B230000DF111072FD4884206DA04A945
:10231000411849780829A8BF0F2100DA002104AA32
:10232000821800E0761E12F80139401E8B42F9D067
:102330000F2904D104A941184A78521C4A70002878
:1023400002D504AF761C2D1D36B2701E0DD4C119F6
:102350000A783032D2B23A2A03DB9DF838303A3B61
:102360009A18401E01F80129F2D5206B002840F18F
:10237000EC80701E2063E8E0DDE90201002200230A
:1023800000F084FB3CBF81F00041CDE902012DB299
:1023900047F2975068434B49DFF82C9190FBF1F5D9
:1023A0002DB2C5F1070ABAF1010F90461CDBDDE939
:1023B00002675FEACA7007D542464B463046394647
:1023C00000F01EFD06460F464046494642464B4633
:1023D0004FEA6A0A00F014FDBAF1000F8046894600
:1023E000E7D1CDE9026724E0CAF1000A0026374FA1
:1023F00014E05FEACA7007D542464B46304639467C
:1024000000F0FEFC06460F464046494642464B4613
:1024100000F0F6FC4FEA6A0A80468946BAF1000FDE
:10242000E7D1DDE9020132463B4600F0BBFDCDE9D4
:102430000201BBF1660F0CBF05F10A000620216BFB
:10244000DFF88C904618142EA8BF132630208DF884
:1024500010000DF11107012E3CDBDDE9020100F057
:10246000E1FB07F1080104220A23B0FBF3F303EBBD
:102470008307A0EB4700303001F8010C0A20B3FBC2
:10248000F0F000EB8007A3EB47033033521E01F856
:10249000023DE9D1083E012E01F10807DBDBDDE951
:1024A000020100F0BFFB00F0DDFB02460B46DDE958
:1024B000020100F0E5FB00224B4600F0A1FCCDE953
:1024C0000201CAE7A0860100000024400000F03F9E
:1024D00084D797410DF11100381A0DF1110702E070
:1024E000401E6D1E7F1C39783029F9D0BBF1660F74
:1024F00002D12DB2691C04E0BBF1650F0CBF0121B4
:102500000021226B8E1836B2B042B8BF064636B2F2
:1025100031001AD4814204DAC85D3528A8BF3920B9
:1025200000DA3020CA19521E00E0761E12F8013976
:10253000491E8342F9D0392802D1C85D401CC855D4
:10254000002902D57F1E761C6D1C2DB29DF8381017
:10255000009533B23A46204600F003F80FB0BDE8CC
:10256000F08F2DE9F04786B006468A4690461D4614
:1025700000F061FE012D406A376B90F8009002DA9E
:1025800001250FF270284AF02000BDF93840662876
:1025900008BF641C12D0672876D114F1040F79DBD0
:1025A000BC4277DA96F83800641C000702D4BD42BA
:1025B000B8BF2F4624B23F1B48BF002724B2F068A3
:1025C000B169012C21DA4A1C30230B54012F03DAA4
:1025D00096F83810090702D502F80090521CB26133
:1025E000E742B8BF7C4224B26142E7197162AF4250
:1025F000B8BF3D46B3692DB2F5612A464146181869
:1026000000F070F9781BB062BAE00818A54216DA3B
:102610002A46414600F066F9B1696918601B012F2E
:10262000B161706203DA96F83800000705D5F068EA
:1026300001F80090F069401CF061B762A0E022460A
:10264000414600F04FF9B06920182D1B012F03DA25
:1026500096F83810090703D5F16800F80190401C7E
:102660002DB2B061AF42B8BF3D46F068B3692DB23C
:102670002A4604EB0801181800F034F9B06928184C
:10268000B061781B70627BE0BAF1610F14D14FF03A
:10269000700A16E0BD4204DA96F83810090758BFF0
:1026A0002F467F1E48BF0027BAF1670F14BF4FF0B7
:1026B000450A4FF0650A04E0BAF1410F08BF4FF038
:1026C000500AB169F0684A1CB261012F18F8013B49
:1026D0000B5403DA96F83810090715D5531CB3616B
:1026E00002F80090012F0FDB6D1E2DB2AF42B8BF74
:1026F0003D462DB22A464146181800F0F3F8B0695D
:102700002818B061781B7062F068B1690918200060
:1027100081F800A004D42B20487001F1020804E0E5
:102720002D224A7001F102086442002502AF08E040
:102730000A22684600F098FD019807F8010B6D1C0D
:10274000009C21B20129F3DA022D06DA4AF02000BA
:10275000652804BF302008F8010B4DB9302008F877
:10276000010B07E06D1E02A8285C303008F8010B51
:10277000012DF7DAF068B1690818A8EB0000F061E4
:1027800096F8380000F0140010280DD17069B16976
:102790000818716A0818F1690818B16A0818716B8D
:1027A0008842BCBF081A306206B0BDE8F087F8B5B1
:1027B00004460D4616461F46002077B116F8011B49
:1027C000A868A047A86030B1E86A401CE862002011
:1027D0007F1EF3D1F2BD4FF0FF30F2BD00000000CC
:1027E000000000006E616E004E414E00696E660092
:1027F000494E46003000F8B504460D4616461F46C1
:1028000000F043FD3B4632462946204601B0BDE874
:10281000F04000F050BD00000278C9B28A421AB1FF
:102820001CBF10F8012FF9E718BF00207047000007
:1028300000F10103810704D010F8011B89B1810761
:10284000FAD10268B2F10131914311F0803F04BF27
:1028500050F8042FF6E710F8011B11B110F8011B16
:10286000FBE7C01A70470000C9B2830706D0521EAA
:1028700022D310F8013B9942F7D11FE0083A13D355
:1028800002F1040241EA012141EA014150F8043B0E
:10289000121F21BF4B40A3F1013C2CEA030C1CF09A
:1028A000803FF3D0C9B2001F083210F8013B521E1E
:1028B00028BF91EA030FF8D818BF0120401E7047C7
:1028C00080B500F0E2FC012002BD70B504460D4663
:1028D000164600F0DAFC324629462046BDE8704034
:1028E00000F0DCBC62B38B0708D0521E11F8013B2C
:1028F00000F8013B00F024808B07F6D1830740F0FD
:10290000208000BF103A07D330B4B1E83810103A35
:10291000A0E83810F9D230BC530724BFB1E8081042
:10292000A0E8081044BF51F8043B40F8043BD2072C
:1029300024BF31F8022B20F8022B44BF0B78037020
:102940007047083A07D3B1E80810083A40F8043B4A
:1029500040F804CBF7D25307E4E700001B4213D141
:10296000094236D12AB18446B0FBF2F002FB10C214
:10297000704700F0C3BCFCD30022002370470B005B
:102980000200002100207047904271EB030CF6D347
:1029900070B5B1FA81F4B3FA83F52C1BA340C4F1EE
:1029A000200532FA05F63343A2405FF00046E640C8
:1029B00002E05B085FEA3202841A71EB030524BF70
:1029C000204629467641F4D302000B003000002156
:1029D00070BD012ACFD970B5140C20D0B1FA81F4A2
:1029E000B2FA82F5C4F120046419B4F12006D6D3FA
:1029F000B2405FF00044F440002502E052085FEA74
:102A00003303C61A71EB020E24BF3046714664418F
:102A10006D41F3D302000B002000290070BD0C466D
:102A2000B1FBF2F102FB11452D0445EA1045B5FB5F
:102A3000F2F402FB145580B240EA0545B5FBF2F012
:102A400002FB105240EA044070BD30B4436803F00A
:102A5000004201211B031B0B436004BF0368002BD2
:102A600008D10DE00368DD0F45EA440444605B00D3
:102A70000360491E4468E302F4D523031B0B436043
:102A800043681A434260084630BC70474FF4001C4C
:102A90001CEB410F94BF1CEB430F09E041EA030C10
:102AA00050EA4C0C52EA0C0C03D2994208BF9042F7
:102AB000704714BF8B428242704700004FF4001CE5
:102AC0001CEB410F94BF1CEB430F09E041EA030CE0
:102AD00050EA4C0C52EA0C0C03D28B4208BF8242E3
:102AE000704714BF994290427047000070B5044689
:102AF0000D466068C0F30A5040F2FF71884207D16A
:102B00006068000304BF2068002817D0022070BD51
:102B100020B92046FFF799FF012866DA012D0FDB67
:102B200040F2FF71091A8D420AD36068002847BF3E
:102B300000202F4900202F49C4E90001012070BD69
:102B40004142A942616806DA6FF31E51401941EA19
:102B50000050606040E0401E63684519012205F1A5
:102B6000350062F31F53352801F00041636003D341
:102B700061600020206070BD002015F11F0F04DA95
:102B8000206823600022203562606A4212D0401E15
:102B900025688041C2F12003C0439D4045EAD070C2
:102BA00025686668D54006FA03F32B432360636803
:102BB000D340636062680A43B0F1004F626003D89B
:102BC0000DD12078C0070AD52068401C20602068FD
:102BD00028B96068401C60604FF0FF3070BD6068CD
:102BE000884204BF20680028F6D1002070BD00BFD5
:102BF0000000F0FF0000F07FF446400D40EAC120E5
:102C0000490006D200F014F8004248BF6FF00040BF
:102C1000604700F00DF84FF0004188428CBF084635
:102C200040426047400D40EAC120490080F00D80DD
:102C300040F00040490DA1F58061491C05D4D1F157
:102C40001F0154BFC840C01770474FF000007047C5
:102C5000010040F10980F446404200F005F851F0CF
:102C600000416047010000BF09D0B0FA80F1884000
:102C7000C91CC1F58461090501EBD02140057047ED
:102C8000F0B44FF0004591EA030F44BF6B4000F0F1
:102C900037BB00BF841A71EB030604D26E40001BE1
:102CA000B141121973414FF4001C1CEB410F34BFAA
:102CB0007CEB430684E00C0DA4EB1356362E7DDC32
:102CC000012E43DC45EAC32343EA525312BFD2022A
:102CD00092025B08240545EAC12141EA5051D2EB3A
:102CE000C020994125D407D1B0FA80F610FA06F138
:102CF00064D00020203608E0B1FA81F6B140C6F178
:102D0000200220FA02F21143B0404FEAF474B4EB0F
:102D1000465434F001064FEA74040AD8D6F500167A
:102D2000760D04F00044F04061FA06F25040F140A4
:102D30004840C00A40EA415021F0004128BF5FEA04
:102D4000500550F1000044EBD12137E045EAC323A0
:102D5000DB0A45EAC121C90AB6F120050EDD42EAC7
:102D60000242120CC5F1200603FA06F6EB4042EAD5
:102D700006056D42984161F100010DE062FA06F529
:102D8000F240554063FA06FC82EA0C02F3405A40D6
:102D90006D42904161EB030111F4801F05D1641E67
:102DA000620502D06D004041494121F48011430881
:102DB00075F1004350F1000041EB0451F0BC704745
:102DC0001CEB410F15D223F0004352EA43060BD00F
:102DD0004FEA4C0CBCEB410F04D80C0D661E342E90
:102DE000B7DDEBE7801A994150EA410608BF0021A0
:102DF000E4E708BF1CEB430F28BF6FF00001DDE7DD
:102E0000B0B581EA030C0CF0004C40F2FF7515EAF6
:102E100011541DBF15EA1357AC42AF4239E0E41913
:102E200023EA455343F48013C90241F0004141EACB
:102E3000505EC7021100A7FB020200284FF00000FD
:102E4000EEFB01204FF00001E3FB072118BF42F029
:102E50000102401800214941E3FB0E01A4F5806402
:102E60000F0302D252004041494154F101046CDD8C
:102E7000470872F1004250F1000051EB0451A1F5F6
:102E800080115CBF41EA0C01B0BD4CEA0551002045
:102E9000B0BD05EA1357AC4214BFAF4241E050EA5F
:102EA000410E1CBF52EA430E02E061460020B0BD55
:102EB00024423C441BD15FEA070EF6D0090302BF4F
:102EC00001460020AEF1140EB1FA81F7AEEB070413
:102ED00001FA07FE0C37C7F1200100FA07F7C840D6
:102EE0004EEA000E23EA455343F48013A2E733F081
:102EF0000043B3FA83F704BFB2FA82FE77440B3F74
:102F0000E41BB7F1200E2FBF02FA0EF3BB40C7F14E
:102F1000200E22FA0EFE38BF43EA0E03BA40641CAC
:102F200082E750EA410E14BF52EA430E6FF00001EF
:102F30004FF4001717EB430F8ABF194617EB410FE9
:102F4000B5E74CEA05510020B0BDD4F10104B4F15D
:102F500020070FDAC4F12007520828BF42F001020F
:102F600010FA07F501FA07F7E1BF2A43E0403843BA
:102F7000E1400FE0352C98DCC7F1200452EA400212
:102F800020FA07F218BF42F0010231FA07F0A1401F
:102F90000A43002172F1004250F1000051EB0C0194
:102FA000B0BD00002DE9F04140F2FF7581EA030C4D
:102FB0000CF0004C15EA11541DBF15EA1357AC4232
:102FC000AF42E9E0BC41C1F31301C3F31303801A1C
:102FD000994143F4801304D2641E40004941801893
:102FE0005941C90241EA5051B1FBF3F603FB1611F6
:102FF000A2FB0675D7EBC020A94102D2761E80182D
:103000005941C90241EA5051B1FBF3FE03FB1E11C5
:10301000A2FB0E75D7EBC020A94103D2AEF1010E81
:1030200080185941890241EA9051760546EA8E2E70
:10303000B1FBF3F603FB1611A2FB0675D7EB80205C
:10304000A94102D2761E80185941C90241EA505165
:103050004EEA060EB1FBF3F603FB1611A2FB067552
:10306000D7EBC020A94102D2761E80185941C9026F
:1030700041EA5051B1FBF3F703FB1711A2FB0735EF
:10308000D3EBC020A94167F100070CBF004247F015
:10309000010766F3D5274FEA1E31B80814F580649E
:1030A00014DDBD0775F1004250EB0E5051EB045199
:1030B00011F5801F5CBF41EA0C01BDE8F0814CF0C6
:1030C0007F6141F0E0410020BDE8F081BD076D085F
:1030D00040EA0E5041F48011D4F10104B4F120060D
:1030E0000ADAC4F120060200E04001FA06F3E140EA
:1030F0001843B24015430EE0342C14DCC6F1200412
:1031000045EA40056D0820FA06F2154321FA06F05B
:10311000A1400D43002175F1004250F1000051EB38
:103120000C01BDE8F08100205FEA0C01BDE8F081F0
:10313000CFB992185B41B3FA83F704BFB2FA82F6B3
:10314000BF190B3FB7F120062FBF02FA06F3BB40B1
:10315000C7F1200622FA06F638BF3343BA401CB145
:10316000E419641E2FE77F4231F00041B1FA81F487
:1031700004BFB0FA80F6A4190B3CB4F120062FBFAF
:1031800000FA06F1A140C4F1200620FA06F638BF85
:103190003143A0403C1B16E7AC421ABF05EA135767
:1031A000AF4214E050EA41061CBF52EA4306BFE7B3
:1031B00050EA4107304661461CBF41EA0551BDE86F
:1031C000F08152EA430C08BFC143BDE8F081002002
:1031D0004FF4001616EB410F98BF16EB430F08BFD4
:1031E00016EB410F24BFC14305E016EB430F0CBFA4
:1031F00061464CEA0551BDE8F081000080B51348F6
:1032000000F0E8F80FF24C020FF244010160426254
:1032100041600FF24402826381600FF24402C16098
:103220000161416181618162C16201634163C26385
:103230000164416401BD10B5044800F0CBF80446B8
:10324000206808B9FFF7DAFF204610BDA80000206B
:10325000000000002E00000066616C736500000035
:10326000747275650000000091FBF2F303FB12110C
:10327000C0E900317047000010B50446DFF81800BF
:1032800000F0A8F850F8240010BD80B5DFF8080061
:1032900000F0A0F8806902BD3801002030B430B9D8
:1032A0000FF24800D0E90045C2E900451BE001707B
:1032B000012030BC704730B431B90FF23800D0E98A
:1032C0000045C3E900450EE01AB930BC6FF00100BB
:1032D000704708B10A7802800978481E804130BCE6
:1032E000C043C00F7047002030BC70470000000092
:1032F0000000000000000000000000007047000017
:10330000841A71EB030603D2001BB14112197341F9
:103310004FF4001C1CEB410F34BF7CEB430443E033
:103320000C0DA4EB1356352E50DC45EAC323DB0A03
:1033300045EAC121C912B6F120050DDD63FA05F693
:10334000EB4086EA0305124218BF45F00105C0189C
:1033500051F100010CD213E062FA06F5F24055403B
:10336000F3415A40B340F3405A408018594107D3C3
:1033700049085FEA30005FEA350528BF45F00105DE
:1033800001F58011420875F1004250F1000041EB57
:103390000451F0BC4FF4001C1CEB410F38BF7047C8
:1033A0000020090D090570471CEB410F10D252EAAD
:1033B00043060BD0BCEB410F05D80C0DAB43661E8A
:1033C000342EB5DD02E0AB4380185941F0BC7047A4
:1033D000F0BC7047704700002DE9F041044600251D
:1033E0002F46002C01D101207BE004F138067078D3
:1033F000002804D128463070204600F01BFC022033
:1034000070702068016821F0020101602068016885
:1034100041F00101016000F090FC804620684168A5
:10342000C90706D400F089FCA0EB08000B28F5D3EF
:1034300042E04168C90749D5A169012900D1802727
:10344000E169012901D147F04007216A012901D131
:1034500047F02007616A012901D147F01007A16AEE
:10346000012901D147F00807E16A012901D147F09C
:103470000407016821F0FC0139430160A068E1689C
:10348000084321690843616908436168491E08438C
:103490002168C8612068016849084900016000F09E
:1034A0004CFC804620684168C9070BD400F045FCFD
:1034B000A0EB08000B28F5D303207070284630706D
:1034C00003200EE04068C00700D50125012D05D17D
:1034D0000020706001207070002002E004207070F5
:1034E0000120BDE8F08170B401224B699A40036865
:1034F000D3F8004224F47C544D6A44EA052444F095
:103500000104C3F80042D3430468D4F81C521D40A0
:10351000C4F81C52CC69002C1BD10468D4F80C529E
:103520001D40C4F80C5204684D6904EBC504CD6815
:103530004E68B6B246EA0545C4F8405204684D6983
:1035400004EBC5048D680E68B6B246EA0545C4F8BA
:103550004452CC69012C1BD10468D4F80C52154399
:10356000C4F80C5204684D6904EBC5040D684E683C
:10357000B6B246EA0545C4F8405204684D6904EB0A
:10358000C5048D68CE68B6B246EA0545C4F8445213
:1035900004688D69002DD4F8045203D11D40C4F88D
:1035A000045202E01543C4F8045204680D69002D6A
:1035B00005D1D4F814522B40C4F8143204E0D4F8E6
:1035C00014321343C4F81432096A012905D1016881
:1035D000D1F81C321A43C1F81C220068D0F800123E
:1035E00049084900C0F80012002070BC70472DE95E
:1035F000F04104460D46042604F1380738780128C6
:1036000001D10220CCE0012038707878222802D144
:103610003220787001E012207870216888684001BB
:1036200001D5002608E08868000101D5012603E0E5
:103630008868C00000D50226042E00F0AC8011EB93
:103640000611D1F8802102F00102C1F88021236B1C
:10365000DA68D3F808C0216811EB0611BCF1000F3D
:1036600009D1D1F880C11B6842EA435242EA0C02F8
:10367000C1F8802109E0D1F880E15B684CEAC3031E
:103680001A4342EA0E02C1F88021216B0A7C02F043
:103690000F020A61216811EB0611D1F88421120989
:1036A0001201C1F88421216811EB0611D1F884219F
:1036B000236B1B691A43C1F88421216BCA7D8B7D62
:1036C0001B0443EA02624B7D42EA0322097D114357
:1036D000226812EB0612C2F88811216BCA7E8B7E1B
:1036E0001B0443EA02624B7E42EA0322097E114335
:1036F000226812EB0612C2F88C11216811EB061039
:10370000D0F8801141F00101C0F8801100F015FBE4
:1037100080462068002E09D1DFF8481380680840F1
:10372000884201D1012016E0002014E0012E09D1C9
:10373000DFF8341380680840884201D101200AE094
:10374000002008E0DFF8241380680840884201D197
:10375000012000E00020002810D115F1010FD8D081
:10376000002D05D000F0E9FAA0EB08008542D0D288
:103770000320787000203870032011E07878322818
:1037800004D1222078700020387001E00120787088
:103790000020387004E00420787000203870012088
:1037A000BDE8F0812DE9F04104460D46174604F1CD
:1037B00038063078012801D10220AEE001203070B7
:1037C0007078122802D13220707001E022207070CF
:1037D00000F0B3FA80462168002D03D1C86800F0DC
:1037E000030002E0086900F00300002810D117F17F
:1037F000010FF0D0002F05D000F09FFAA0EB0800D9
:103800008742E8D20320707000203070032084E0EB
:1038100011EB0511D1F8B01101F00401626B916058
:10382000216811EB0511626B9368002BD1F8B01180
:1038300002D1490D116001E0C9085160216811EB06
:103840000511D1F8B01101F00201626BD16021685D
:1038500011EB0511D1F8B41101F00F01626B116188
:10386000216811EB0511D1F8B411C1F30721626B86
:10387000D161216811EB0511D1F8B811626B117596
:10388000216811EB0511D1F8B811090A626B517565
:10389000216811EB0511D1F8B811090C626B917513
:1038A000216811EB0511D1F8B811090E626BD175C1
:1038B000216811EB0511D1F8BC11626B11762168FA
:1038C00011EB0511D1F8BC11090A626B5176216820
:1038D00011EB0511D1F8BC11090C626B91762168CE
:1038E00011EB0510D0F8BC01000E616BC8762068A2
:1038F000002D04D1C16841F02001C16003E00169DD
:1039000041F0200101617078322802D112207070DC
:1039100001E00120707000203070BDE8F08110B52A
:10392000044620684169C90711D54E4982680A409A
:103930008A4209D04C4982680A408A4204D04B49E5
:1039400080680840884202D1204600F094F8206840
:103950004169890707D5C06810F0030003D0002132
:10396000204600F0A6F820684169C90607D500691D
:1039700010F0030003D00121204600F09AF82068DF
:103980008169C90709D54169C90506D5406900049F
:1039900003D5E06B40F00100E0632068816989078E
:1039A00009D54169890506D54069000403D5E06B56
:1039B00040F00200E06320688169490709D5416948
:1039C000490506D54069000403D5E06B40F00400CA
:1039D000E0632068816911F0700F37D041690905F3
:1039E00034D54169090431D5806900F07000102890
:1039F0000AD020280DD0302810D0402813D05028CD
:103A000016D0602819D01CE0E06B40F00800E0639D
:103A100017E0E06B40F01000E06312E0E06B40F074
:103A20002000E0630DE0E06B40F04000E06308E060
:103A3000E06B40F08000E06303E0E06B40F48070F6
:103A4000E0632068816921F070018161E06B0028EA
:103A500005D0012084F83900204600F00BF810BD95
:103A60000000000003000004000300080000031031
:103A700070477047704780B501684A695208520024
:103A80004A6190F83910122904D101684A6922F478
:103A90000F424A6190F83910322903D1222180F86F
:103AA000391002E0012180F83910FFF7E1FF002012
:103AB00002BD38B5036813EB0113D3F8B03103F03E
:103AC0000403446BA360036813EB0113446BA56804
:103AD000002DD3F8B03102D15B0D236001E0DB088B
:103AE0006360036813EB0113D3F8B03103F00203F2
:103AF000446BE360036813EB0113D3F8B43103F0B4
:103B00000F03446B2361036813EB0113D3F8B43143
:103B1000C3F30723446BE361036813EB0113D3F88A
:103B2000B831446B2375036813EB0113D3F8B83134
:103B30001B0A446B6375036813EB0113D3F8B831A8
:103B40001B0C446BA375036813EB0113D3F8B83156
:103B50001B0E446BE375036813EB0113D3F8BC3100
:103B6000446B2376036813EB0113D3F8BC311B0AB3
:103B7000446B6376036813EB0113D3F8BC311B0C61
:103B8000446BA376036813EB0112D2F8BC21120E2A
:103B9000436BDA760268002909D1D16841F020012F
:103BA000D16001684A6922F002024A6108E01169A5
:103BB00041F02001116101684A6922F010024A6156
:103BC00090F83910222904D101684A6922F40F4281
:103BD0004A6190F83910322903D1122180F8391046
:103BE00002E0012180F83910FFF743FF002032BDC9
:103BF00080B5294829490160122141600021816076
:103C0000C1604FF4802101614FF4801141610021B6
:103C10008161C161016241628162C162FFF7DCFBC7
:103C2000002806D044210FF28000BDE8044000F0D7
:103C300093B901BD00681949884200D0704710B59A
:103C400086B01748016841F000710160006800F01B
:103C50000070009000984FF40060019000200290E6
:103C60000390104C01A9204600F0A4F94FF48050B5
:103C70000190022002900320049001A9204600F048
:103C800099F900221146142000F040FB142000F0A6
:103C90004CFB06B010BD0000A011002000640040E5
:103CA0001C10024000080140463A5C465F506172B9
:103CB0006B5C3030305F4F544F535C3030325F4F6D
:103CC000544F535F46575C53544D33324631303571
:103CD000564354365C4F544F535F43686172676577
:103CE000725C5372635C63616E2E630080B51A4828
:103CF000016841F010010160032000F006FB002084
:103D000000F004F800F032FB002002BD10B50446BC
:103D100000F0C7FE4FF47A71B0FBF1F000F006FB43
:103D2000002221464FF0FF3000F0F0FA002010BDD5
:103D30000A480168491C01607047084800687047DC
:103D400011B581B0FFF7F9FF0446FFF7F6FF001B3E
:103D500001998842F9D313BD002002406414002069
:103D600010B582B004468DF8000002230122694696
:103D70006D4800F013FF204616BD1CB5FFF7B6FFD7
:103D800000F077F801F04AFA01F01CFB01F03AFB71
:103D9000FFF72EFF01F038FC01F0A6FC01F0C7FC94
:103DA00001F082FD01F0C8FD01F068FE01F0A0FE07
:103DB00001F082FE6420FFF7C3FF5C4802F019F8AF
:103DC0005B4802F016F858480068C16841F02001CD
:103DD000C160584802F018FA02F084FA02F020FBA1
:103DE00002F01CFC02F03AFC02F014FF03F048F968
:103DF00003F056FB03F01DFD03F030FE03E003F07B
:103E00001FFD0020207003F096FE4B4C2078002808
:103E1000F5D14A4C2078002805D0494803F010FF1E
:103E200000202070EFE7474C2078002804D003F0F2
:103E300023FE00202070E6E7434801780029E2D005
:103E40000021017003F087FF684640490622FEF713
:103E500049FDDDE9000102F056FE3D4800680321FE
:103E6000B0FBF1F101EB4101401ACCD103F035FB7D
:103E7000C9E700B59BB001200D904FF480300F9042
:103E8000002110910121129100210E910221159122
:103E900016904FF4E0101790002018900DA800F035
:103EA000A9FA002804D0D9210FF2B00000F054F88C
:103EB0000F20009002200190002002904FF48060BB
:103EC0000390002004900221684600F0B7FC00280F
:103ED00004D0E7210FF2840000F03EF802200590A4
:103EE0004FF40040079005A803F080FF002804D09D
:103EF000EE210FF2680000F02FF800F0D2FD4FF431
:103F00007A71B0FBF1F000F011FA042000F00FFA22
:103F1000012010490860002211464FF0FF3000F0E8
:103F2000F5F91BB000BD000020120020A0120020F7
:103F3000DC120020881300206F1400208C0E00205B
:103F4000300F00204D1400204C140020C813002016
:103F50005014002070004242FEE70000463A5C46E2
:103F60005F5061726B5C3030305F4F544F535C6711
:103F700069745F4F544F535C6769745F4F544F537C
:103F80005C3030325F4F544F535F46575C53544D53
:103F9000333246313035564354365C4F544F535FBD
:103FA000436861726765725C5372635C6D61696ED0
:103FB0002E630000F8B50024224603E026EA03033E
:103FC000EB60521C102A80F0B980012303FA02F53D
:103FD0000B682B40AB42F4D14E68002E27D0012E47
:103FE0001AD0022E1DD0032E2ED0112E16D0122E36
:103FF0001AD08D4FBE421AD08C4FBE4217D08C4F74
:10400000BE4214D08B4FBE4211D08B4FBE420ED059
:104010008A4FBE420BD018E0CC6816E0CC68241D55
:1040200013E0CC68083410E0CC680C340DE08C68E8
:10403000002C01D1042408E0012C02D108240561E0
:1040400003E00824456100E00024FF2B01D8064668
:1040500000E0061DFF2B01D8970002E0A2F1080541
:10406000AF000F25D6F800C005FA07FE2CEA0E0CAB
:1040700004FA07F747EA0C0737604E68F600A0D548
:104080006F4E376847F001073760366806F0010663
:104090000096009E96086B4F57F826E002F0030C3E
:1040A0004FEA8C0C05FA0CF52EEA0505DFF898E1CD
:1040B000704502D14FF0000E16E0DFF890E1704538
:1040C00002D14FF0010E0FE0DFF884E1704502D11C
:1040D0004FF0020E08E0DFF87CE1704502D14FF0AE
:1040E000030E01E04FF0040E0EFA0CFC4CEA05053D
:1040F00047F82650584D4E68F6032E6802D51E43E9
:104100002E6001E09E432E604E68B6036E6802D5B5
:104110001E436E6001E09E436E604E68F602AE681C
:1041200002D51E43AE6001E09E43AE604E68B6020B
:10413000EE687FF543AF3343EB6042E7F1BDF0B586
:10414000002219E04FF0040E0EFA07F7BC4512D119
:1041500054F8257027EA060644F825603E4C256889
:104160001D40256065681D406560A5681D40A5600F
:10417000E5682B40E360521C0B46D34045D0012339
:1041800093400B40F7D0FF2B01D8044600E0041DFC
:10419000FF2B01D8950002E0A2F10805AD000F2623
:1041A000276806FA05FC27EA0C074FF0040C0CFA06
:1041B00005F53D432560DB43C4681C40C460950899
:1041C000204C54F825C002F00307BF00BE4006EAA9
:1041D0000C0CDFF874E0704502D14FF0000EB3E72D
:1041E000DFF868E0704502D14FF0010EACE7DFF870
:1041F00060E0704502D14FF0020EA5E7DFF854E011
:1042000070459FD14FF0030E9EE7F0BD80680840D7
:10421000401E8041C043C00F7047002A01D0016199
:10422000704709040161704700001110000012106E
:104230000000211000002210000031100000321098
:10424000181002400800014000080140000C014025
:104250000010014000140140000401403A490A687E
:104260004FF6FF031A4000F0070042EA0020374AE9
:1042700010430860704734480068C0F3022070475C
:10428000012100F01F029140314A400942F82010FC
:1042900070470901002806D52E4A00F00F0080184B
:1042A00000F8041C70472C4A8154704710B400F089
:1042B0000700C0F10703052B00D30423041D072CBE
:1042C00001D2002000E0C01E012404FA03F35B1EAB
:1042D0001940814004FA00F0401E1040084310BC11
:1042E000704710B5401EB0F1807F01D3012010BD92
:1042F0001A4C60600F214FF0FF30FFF7CAFF00201B
:10430000A06007202060002010BDA7E770B504461C
:104310000D461646FFF7AFFF32462946FFF7C6FFA8
:1043200001462046BDE87040B3E7A9E7D9E70B494D
:104330000428086803D140F004000860704720F0AA
:1043400004000860704700000CED00E00000FA0572
:1043500000E100E018ED00E000E400E010E000E023
:1043600080B500F001F801BD7047000080B51F481E
:10437000016841F001010160006800F00100009057
:1043800000980320FFF7C1FF002211466FF00B00D9
:10439000FFF7BCFF002211466FF00A00FFF7B6FFDF
:1043A000002211466FF00900FFF7B0FF002211460E
:1043B0006FF00400FFF7AAFF002211466FF0030020
:1043C000FFF7A4FF002211466FF00100FFF79EFFE8
:1043D000002211464FF0FF30FFF798FF04480168B4
:1043E00021F0E06141F00071016001BD1810024050
:1043F00004000140F8B50446DFF8F4562078C00701
:1044000072D5686800F00C00042807D0686800F0D6
:104410000C0008280CD16868C00309D52868C0F3CF
:104420004040002860D0A06800285DD10120F2BD86
:10443000286820F480302860286820F480202860D4
:10444000FFF77BFC06462868C0F34040002805D0F3
:10445000FFF773FC801B6528F5D3EBE1A068B0F58E
:10446000803F04D1286840F4803028601DE0002897
:1044700008D1286820F480302860286820F4802043
:10448000286012E0B0F5A02F286807D140F4802002
:104490002860286840F48030286006E020F48030EE
:1044A0002860286820F480202860A06800280DD0AB
:1044B000FFF743FC06462868C0F34040002813D1AC
:1044C000FFF73BFC801B6528F5D3B3E1FFF735FC14
:1044D00006462868C0F34040002805D0FFF72DFCB1
:1044E000801B6528F5D3A5E1207880071AD5686878
:1044F00010F00C0F07D0686800F00C00082829D1D4
:104500006868C00326D42868C0F34000002802D0A1
:10451000606901288AD1286820F0F800A16940EA82
:10452000C10028602078000744D5DFF8C805E1699C
:1045300000295ED001210160FFF7FFFB0646686A93
:10454000C0F34000002832D1FFF7F7FB801B65283D
:10455000F5D36FE1DFF8A0756069002817D001205E
:104560003860FFF7EAFB06462868C0F340000028E1
:1045700005D1FFF7E2FB801B6528F5D35AE12868D7
:1045800020F0F800A16940EAC1002860CAE70020D5
:104590003860FFF7D2FB06462868C0F340000028C9
:1045A000C0D0FFF7CAFB801B6528F5D342E101208C
:1045B000FFF7C6FB2078400740F18B80E86940F0A8
:1045C0008050E861E86900F0805000900098DFF8C2
:1045D0002C75386840F480703860FFF7AEFB0646F3
:1045E0003868C00515D4FFF7A8FB801B6528F7D3F2
:1045F00020E100210160FFF7A0FB0646686AC0F3D6
:1046000040000028D6D0FFF798FB801B6528F5D323
:1046100010E1286A400840002862286A20F004005F
:104620002862FFF78AFB0646286AC0F3400000288C
:1046300007D0FFF782FB801B41F289318842F3D318
:10464000F8E02069012804D1286A40F001002862BE
:104650001CE0002808D1286A400840002862286A27
:1046600020F00400286211E00528286A07D140F0F4
:1046700004002862286A40F00100286206E0400831
:1046800040002862286A20F004002862206900287F
:104690000FD0FFF752FB0646286AC0F340000028FF
:1046A00017D1FFF74AFB801B41F289318842F3D3CF
:1046B000C0E0FFF742FB0646286AC0F3400000282E
:1046C00007D0FFF73AFB801B41F289318842F3D3D0
:1046D000B0E0E06A00285BD06968C90308D5696862
:1046E00001F00C01082903D1E96AC9033FF59EAE28
:1046F000022837D12868C00006D5E86A00F0F0002B
:10470000616B88427FF492AEDFF8EC730020B866EC
:10471000FFF713FB06462868C0F3C060002805D0E9
:10472000FFF70BFB801B6528F5D383E0E86A20F0D8
:10473000F000616B0843E862E86A20F47060216B66
:104740000843E8620120B866FFF7F7FA06462868D2
:10475000C0F3C06000281BD1FFF7EFFA801B65286B
:10476000F5D367E0E86A20F48030E8620020DFF8E3
:1047700088138866FFF7E1FA06462868C0F3C06030
:10478000002805D0FFF7D9FA801B6528F5D351E042
:10479000206A002850D0696801F00C0108293FF414
:1047A00045AEDFF85473022835D100203866FFF794
:1047B000C4FA06462868C0F34060002805D0FFF719
:1047C000BCFA801B6528F5D334E0606AB0F5803F01
:1047D00009D1E86A61680843E862E86A0009E168AB
:1047E00051EA0010E862686820F47410616A0843B6
:1047F000A16A0843686001203866FFF79EFA064602
:104800002868C0F34060002816D1FFF796FA801B95
:104810006528F5D30EE000203866FFF78EFA0646CD
:104820002868C0F34060002806D0FFF786FA801B96
:104830006528F5D30320F2BD0020F2BD2DE9F0413B
:1048400004460E46DFF8B872386800F00700B04240
:1048500066D23868C00856EAC0003860386800F090
:104860000700B04240F0C080DFF884522078800713
:1048700005D5686820F0F000A168084368602078DA
:10488000C00740F1B3806068012805D12968C1F3F1
:10489000404100290DD1A7E00228296804D1C1F3C5
:1048A0004061002905D19FE0C1F34001002900F0DB
:1048B0009B806968890850EA81006860FFF73DFACB
:1048C0008046606801280ED1686800F00C0004285A
:1048D00000F08C80FFF731FAA0EB080041F289313B
:1048E0008842F1D374E002280DD1686800F00C0012
:1048F00008287BD0FFF721FAA0EB080041F28931AC
:104900008842F2D364E0686810F00C0F6ED0FFF7B5
:1049100014FAA0EB080041F289318842F3D357E042
:104920002078800706D5724D686820F0F000A168F5
:10493000084368602078C0074CD560686C4D01283A
:1049400005D12968C1F3404100290CD14CE002286F
:10495000296804D1C1F34061002904D144E0C1F3C6
:104960004001002940D06968890850EA81006860E8
:10497000FFF7E3F98046606801280DD1686800F010
:104980000C00042826D0FFF7D8F9A0EB080041F26C
:1049900089318842F2D31BE002280DD1686800F00B
:1049A0000C00082816D0FFF7C8F9A0EB080041F268
:1049B00089318842F2D30BE0686810F00C0F09D0FF
:1049C000FFF7BBF9A0EB080041F289318842F3D32D
:1049D000032024E03868C00856EAC0003860386810
:1049E00000F00700B04201D0012018E02078400715
:1049F00006D53F4D686820F4E060E16808436860D0
:104A00002078000707D53A4D686820F46050216986
:104A100040EAC10068600020FFF778F90020BDE897
:104A2000F08110B588B068460FF2E8011CC91CC0BF
:104A30000FF2EC011022FDF765FF3248026802F028
:104A40000C0108292AD16946C2F38343595CD20379
:104A500021D503AA836A03F00F039A5C836ADB0300
:104A60000FD5836AC3F303135B1C806AC0F3032072
:104A7000801C254CB4FBF3F35843B0FBF2F04843E1
:104A800003E02148B0FBF2F048439DF80D2091422D
:104A900005D1400803E01D48484300E01A4808B02B
:104AA00010BD80B5FFF7BDFF19490FF28402154B09
:104AB0001B68C3F303139A5CD0400860086802BD0A
:104AC00080B5FFF7EEFF0FF268010E4A1268C2F3DD
:104AD0000222515CC84002BD80B5FFF7E2FF0FF231
:104AE0005001084A1268C2F3C222515CC84002BD9C
:104AF0000010024080044242000042420070004028
:104B0000002002400410024000127A0000093D001B
:104B10002000002000000405060708090000000D21
:104B20000102030405060708090A0B0C0D0E0F10FD
:104B30000000000001020304010203040607080943
:104B400038B5050001D1012032BD05F13804607887
:104B5000002804D100202070284600F0EAFF02203F
:104B600060702868C16821F40051C160284600F0D7
:104B7000DEFA2868016921F49041016128684169E1
:104B800021F02A0141612868C16841F40051C160E7
:104B90000020606001206070002032BDF8B504463E
:104BA0000D461E4604F138077878012801D02228E6
:104BB00054D1002D01D0002A01D10120F2BD387856
:104BC00001284BD0012038700020786078782228A6
:104BD00002D13220787001E012207870A284E28441
:104BE0000AE000228021204600F09AF9002828D10E
:104BF00015F8010B21684860E08C002819D0401E90
:104C0000E084A068B0F5805F3346EAD100228021BD
:104C1000204600F085F9002813D12888C005C00D72
:104C2000216848602069002801D1AD1CE4E76D1CB3
:104C3000E2E7334600224021204600F071F90028C7
:104C400001D00320F2BD7878322802D1222078707A
:104C500001E00120787000203870F2BD0220F2BD22
:104C6000F8B504460D461E4604F138077878012849
:104C700001D0122856D1002D01D0002A01D10120E7
:104C8000F2BD387801284DD00120387000207860BE
:104C90007878122802D13220787001E022207870D2
:104CA000A285E28503E0C005C00D25F8020BE08D6A
:104CB00000282CD0401EE085A068B0F5805F334608
:104CC0000FD100222021204600F02AF900280FD120
:104CD0002068216900294068E5D0C0B225F8010BA1
:104CE000E5E700222021204600F01AF9002801D033
:104CF0000320F2BD206821690029406802D105F82F
:104D0000010BD4E700F07F0005F8010BCFE77878BE
:104D1000322802D11220787001E001207870002042
:104D20003870F2BD0220F2BD38B5054605F13804F1
:104D30006078012801D0122831D1002901D0002A41
:104D400001D1012032BD2078012828D00120207017
:104D5000A962AA85002060606078122802D1322002
:104D6000607001E0222060700FF251106B6B98624E
:104D70000FF281106B6BD8620FF285106B6B1863AA
:104D800013460A462868011D686B03F0D1F92868AC
:104D9000416941F0400141610020207032BD022094
:104DA00032BD10B582B004462068016801F00101EF
:104DB000C26802F4807200290AD0002A08D0016873
:104DC0000091406800900098E06B40F00100E063C3
:104DD00021680868400800F00102486900F00100FD
:104DE000002A0AD0002808D00A6800924968009179
:104DF0000099E16B41F00401E16321680A689208BF
:104E000012F001020AD0002808D00A68009249680E
:104E100000910099E16B41F00201E16321680A68A9
:104E2000D20812F001020AD0002808D008680090C9
:104E3000486800900098E06B40F00800E06320684C
:104E40000168490901F00101C06800F02000002953
:104E500004D0002802D0204600F014F92068016830
:104E6000C90901F00101C06800F08000002904D0E8
:104E7000002802D0204600F0B8F8206801688909AF
:104E800001F00101C06800F04000002904D00028B2
:104E900002D0204600F0DCF8E06B002805D00120AD
:104EA00084F83900204600F0F9FE13BD70477047C2
:104EB00090F839007047C06B7047000080B5416AB8
:104EC00000680068800611D40020C885086842691F
:104ED00022F04002426191F83900322803D11220B9
:104EE00081F8390002E0012081F83900084600F01D
:104EF000B8FE01BD80B5406AFFF7D9FF01BD0000D3
:104F000080B5406A00F1260100220A810A80012250
:104F1000CA74C16B41F01001C16300F0BFFE01BD56
:104F20002DE9F04104460D4690461E46FEF705FF6A
:104F30000746B8F1000F2AD1206800682840A8422F
:104F400050D016F1010FF7D0002E04D0FEF7F5FE79
:104F5000C01B8642F0D22068C16821F08001C16088
:104F60002068C16821F02001C1602068C16821F477
:104F70008071C1602068416949084900416104F1BC
:104F80003800012141700021017003202BE02068CE
:104F900000682840A84225D116F1010FF7D0002E55
:104FA00004D0FEF7CAFEC01B8642F0D22068C1685A
:104FB00021F08001C1602068C16821F02001C1603A
:104FC0002068C16821F48071C16020684169490886
:104FD0004900416104F13800012141700021017054
:104FE000032000E00020BDE8F08190F8391012297C
:104FF00001D032292AD1016A8268B2F5805F0ED1D0
:105000000988C905C90D02685160016A0269002A50
:1050100002D1891C016207E0491C016204E04A1CBC
:105020000262097802685160C18C491EC18489B24C
:10503000002909D10168CA6822F08002CA600068AC
:10504000C16841F04001C1600020704702207047F4
:1050500080B50168CA6822F04002CA6090F8391031
:10506000322903D1222180F8391007E001684A690A
:10507000520852004A61012180F83910FFF716FFEB
:10508000002002BD80B590F83910222901D03229C4
:105090004BD10269816A8368B3F5805F10D10368E0
:1050A000002A5A6806D1D205D20D0A80816A891C6D
:1050B000816214E0D2B20A80816A491C81620EE0EA
:1050C000002A05D14A1C8262026852680A7006E012
:1050D0004A1C82620268526802F07F020A70C18D27
:1050E000491EC18589B200291DD10168CA6822F014
:1050F0002002CA6090F83910322903D1122180F8B9
:1051000039100CE00168CA6822F48072CA60016834
:105110004A69520852004A61012180F8391000F0B2
:10512000A0FD002002BD002002BD022002BD2DE92D
:10513000F04104462068016921F44051E2681143BE
:1051400001612068C168334A1140A2681143226995
:10515000114362691143C1602068416921F44071C3
:10516000A269114341616425192620682A498842B1
:1051700027D1FFF7B1FC8046FFF7AEFC0746FFF7EB
:10518000ABFC61688A0006FB08F1B1FBF2F12B462B
:10519000B1FBF3F106FB07F3B3FBF2F37043B0FB93
:1051A000F2F02A46B0FBF2F005FB1030000132307D
:1051B000B0FBF2F000F00F0040EA011021688860B7
:1051C00026E0FFF77DFC8046FFF77AFC0746FFF7F5
:1051D00077FC61688A0006FB08F1B1FBF2F12B460F
:1051E000B1FBF3F106FB07F3B3FBF2F37043B0FB43
:1051F000F2F02A46B0FBF2F005FB1030000132302D
:10520000B0FBF2F000F00F0040EA01102168886066
:10521000BDE8F081F3E9FFFF003801402DE9F041DE
:1052200086B06248016841F010010160016801F038
:10523000100104910499016841F0040101600168C2
:1052400001F0040104910499016841F040010160FA
:10525000016801F0400104910499016841F00801DE
:105260000160016801F0080104910499016841F0AE
:1052700020010160006800F02000049004984C4C6C
:1052800000224FF4FF412046FEF7C7FF494D0022A0
:105290004FF492512846FEF7C0FF474E0022C0212E
:1052A0003046FEF7BAFF454F00224FF48071384672
:1052B000FEF7B3FFDFF808810022D1214046FEF758
:1052C000ACFF0F2000900020019001200290694661
:1052D0003046FEF76FFE4FF4FF4000900120019032
:1052E0000220039069462046FEF764FE4FF4925078
:1052F0000090012001900220039069462846FEF7A5
:1053000059FE4FF47F40009000200190022002904F
:1053100069464046FEF74EFEC020009001200190F5
:105320000220039069463046FEF744FE4FF4807633
:105330000096012001900220039069463846FEF74E
:1053400039FE11200090012001900220039069464F
:105350004046FEF72FFE2020009000200190012003
:10536000029069464046FEF725FEC02000900120CD
:1053700001900320039069464046FEF71BFE00960D
:10538000002001900120029069462846FEF712FE97
:1053900003200090002001900120029069462046E1
:1053A000FEF708FE06B0BDE8F08100BF181002400D
:1053B00000180140000C01400010014000080140AD
:1053C0000014014080B50E48016841F00101016000
:1053D000006800F0010000900098002211460B20A8
:1053E000FEF794FF0B20FEF7A0FF002211460F20CE
:1053F000FEF78CFF0F20BDE80240FEF796BF00BF0E
:10540000141002403EB5684C684820604FF480702C
:10541000A0600120E060002060614FF46020E06146
:1054200000206060082020610FF29815204603F0EC
:1054300059FA002803D045212846FEF78DFD0020AB
:10544000009001200190062002906946204603F05A
:1054500009FC002803D04F212846FEF77DFD0120DE
:105460000090022001906946204603F0FBFB0028D3
:1054700003D058212846FEF76FFD0220009003203C
:1054800001906946204603F0EDFB002803D061211E
:105490002846FEF761FD0320009004200190694634
:1054A000204603F0DFFB002803D06A212846FEF7E0
:1054B00053FD06200090052001906946204603F028
:1054C000D1FB002803D073212846FEF745FD0720B5
:1054D0000090062001906946204603F0C3FB002897
:1054E00003D07C212846FEF737FD0E2000900720D0
:1054F00001906946204603F0B5FB002803D08521C2
:105500002846FEF729FD0F200090082001906946EB
:10551000204603F0A7FB002803D08E212846FEF783
:105520001BFD37BD30B585B0044620681F49884251
:1055300037D11F48016841F400710160006800F430
:10554000007000900098CF2001900320029001A9E4
:105550001848FEF72FFD302001900320029001A98A
:105560001548FEF727FD154D154828600020686096
:10557000A8608020E8604FF4007028614FF400605C
:1055800068612020A8610020E861284602F0A8FD9B
:10559000002804D0BE210FF22C00FEF7DDFC2562AE
:1055A0006C6205B030BD000088130020002401406B
:1055B000181002400008014000100140181300209C
:1055C00008000240463A5C465F5061726B5C3030C6
:1055D000305F4F544F535C3030325F4F544F535F06
:1055E00046575C53544D333246313035564354366A
:1055F0005C4F544F535F436861726765725C5372CE
:10560000635C6164632E63001CB5224C22482060F9
:10561000204603F04FFC002804D03D210FF2840007
:10562000FEF79AFC00200090019002466946204651
:1056300003F082FC002804D046210FF26800FEF738
:105640008BFC10226946204603F076FC002804D02B
:105650004D210FF25000FEF77FFC13BD00680E498C
:10566000884200D0704700B585B00C48016841F011
:1056700000510160006800F0005000900098302058
:1056800001900320029001A90548FEF793FC05B0A4
:1056900000BD0000E8130020007400401C10024010
:1056A00000080140463A5C465F5061726B5C3030E6
:1056B000305F4F544F535C3030325F4F544F535F25
:1056C00046575C53544D3332463130355643543689
:1056D0005C4F544F535F436861726765725C5372ED
:1056E000635C6461632E630080B55748574901606D
:1056F0004FF48271416000218160C16001614161AC
:105700004FF4007181610821C16100210162416291
:1057100081620A21C16203F04BFC002806D04621B9
:105720000FF24010BDE80440FEF716BC01BD80B585
:105730004748484901604FF482714160002181600F
:10574000C160016141614FF4007181610021C1615B
:105750000162416281620A21C16203F029FC0028D2
:1057600006D05C210FF2FC00BDE80440FEF7F4BB5C
:1057700001BD10B586B000683449884223D136484F
:10578000016841F480510160006800F4805000908D
:1057900000982820019002200290032004902F4CB2
:1057A00001A92046FEF706FC10200190002002907F
:1057B000039001A92046FEF7FDFB2948016841F04E
:1057C0000101016022E0234988421FD1224841683B
:1057D00041F480414160406800F4804000900098AE
:1057E0004FF42040019002200290032004901B4CB3
:1057F00001A92046FEF7DEFB4FF480400190002017
:105800000290039001A92046FEF7D4FB06B010BD1C
:1058100000680E49884208D10F48016821F4805180
:10582000016038210D48FEF78ABC0A49884209D137
:105830000948416821F4804141604FF460410748C4
:10584000FEF77DBC70470000C80F0020003001400B
:10585000201000200038004018100240000C0140C9
:1058600004000140463A5C465F5061726B5C303028
:10587000305F4F544F535C3030325F4F544F535F63
:1058800046575C53544D33324631303556435436C7
:105890005C4F544F535F436861726765725C53722B
:1058A000635C7370692E630010B58CB05E4C5F480A
:1058B000206048F6A04060600020A0601320E060F7
:1058C0004FF48070206100206061204600F078FA7B
:1058D000002804D042210FF26010FEF73DFB4FF488
:1058E0008050079007A9204600F038FB002804D01C
:1058F00048210FF24410FEF72FFB062002900020F3
:10590000039002A9204600F0A9FB002804D04F21F3
:105910000FF22410FEF720FB002000900190694652
:10592000204603F08BFB002804D056210FF208100C
:10593000FEF712FB0CB010BD10B58CB03C4C4FF014
:105940008040206048F6A04060600020A060C72032
:10595000E0604FF480702061204600F031FA0028AA
:1059600004D069210FF2D000FEF7F6FA4FF4805010
:10597000079007A9204600F0F1FA002804D06F2113
:105980000FF2B400FEF7E8FA062002900020039020
:1059900002A9204600F062FB002804D076210FF215
:1059A0009800FEF7D9FA0020009001906946204641
:1059B00003F044FB002804D07D210FF27C00FEF7A9
:1059C000CBFA0CB010BD80B500681849884213D1DD
:1059D0001848016841F400610160006800F400604B
:1059E00000900098002211461920FEF78FFC192024
:1059F000BDE80240FEF799BCB0F1804F13D10D48CD
:105A0000416841F001014160406800F001000090F0
:105A10000098002211461C20FEF778FC1C20BDE8EF
:105A20000240FEF782BC01BDA0120020002C014004
:105A3000DC12002018100240463A5C465F5061724A
:105A40006B5C3030305F4F544F535C3030325F4FBF
:105A5000544F535F46575C53544D333246313035C3
:105A6000564354365C4F544F535F436861726765C9
:105A7000725C5372635C74696D2E630080B5DFF8ED
:105A80009C02DFF89C1201604FF4E131416000217B
:105A90008160C16001610C21416100218161C161AE
:105AA000FFF74EF8002806D047210FF2A420BDE8EA
:105AB0000440FEF751BA01BD80B59A489A49016089
:105AC0004FF4E131416000218160C16001610C212E
:105AD000416100218161C161FFF732F8002806D0E1
:105AE00059210FF26C20BDE80440FEF735BA01BD24
:105AF00080B58E488E4941604FF4165181604FF455
:105B00008051C160002101614FF4806141610C212D
:105B100081610021C1610162001DFFF711F80028B9
:105B200006D06C210FF22820BDE80440FEF714BA1D
:105B300001BD30B585B0044620687949884228D136
:105B40007C48416841F400214160406800F4002035
:105B5000009000984FF48060019002200290032092
:105B60000490754C01A92046FEF724FA4FF400601A
:105B7000019000200290039001A92046FEF71AFA36
:105B8000002211463420FEF7C1FB3420FEF7CDFB86
:105B900065E06549884226D16648416841F4801134
:105BA0004160406800F48010009000984FF48050ED
:105BB0000190022002900320049001A95E48FEF7A4
:105BC000F9F90420019000200290039001A95B489C
:105BD000FEF7F0F9002211463520FEF797FB35203D
:105BE000FEF7A3FB3BE05249884238D15148016897
:105BF00041F480410160006800F48040009000980A
:105C00004FF40070019002200290032004904C4D4C
:105C100001A92846FEF7CEF94FF4806001900020DC
:105C20000290039001A92846FEF7C4F9454D464865
:105C3000286000206860A8608020E860002028615B
:105C40006861A861E861284602F04AFA002804D099
:105C5000D1210FF2FC00FEF77FF965636C6205B09D
:105C600030BD10B500683249884216D12F4C2078DB
:105C700000F058FB02E0207800F054FB00230122E2
:105C80002146201DFEF7ECFF0028F4D0012221461A
:105C9000201DBDE81040FFF747B810BD38B50446D9
:105CA000FFF706F905462046FFF705F92168204A67
:105CB000914209D103462A460FF2EC01012001B0BE
:105CC000BDE8304003F0E7B931BD18490122081D95
:105CD000FFF72AB870B504460D0002D14FF0FF302F
:105CE00070BD174E01224FF480713046FEF795FAD1
:105CF0004FF0FF332A4621461448FEF74FFF044673
:105D000000224FF480713046FEF787FA002C02D053
:105D10004FF0FF3070BD002070BD00002012002049
:105D2000004C004060120020005000405C11002038
:105D300000380140181002400010014000140140DA
:105D4000000801405013002058000240601100205C
:105D5000463A5C465F5061726B5C3030305F4F5446
:105D60004F535C6769745F4F544F535C6769745F4E
:105D70004F544F535C3030325F4F544F535F465750
:105D80005C53544D333246313035564354365C4FB4
:105D9000544F535F436861726765725C5372635C12
:105DA00075736172742E63005541525431203A204C
:105DB00073743D25782C206572723D25780A0000A9
:105DC00038B5040001D1012032BD04F138056878EE
:105DD000002804D1002028702046FFF7F4FD02209F
:105DE0006870211D206800F05DF9012068700020B6
:105DF00032BD0168CA6842F00102CA6000680168E9
:105E000041F0010101600020704710B50446206890
:105E10000169890717D5C168890714D56FF0020198
:105E20000161012020762068806910F0030F204670
:105E300002D000F034F904E000F030F9204600F020
:105E40002FF90020207620680169490717D5C1681D
:105E5000490714D56FF00401016102202076206803
:105E6000806910F4407F204602D000F018F904E069
:105E700000F014F9204600F013F900202076206885
:105E80000169090717D5C168090714D56FF0080122
:105E90000161042020762068C06910F0030F2046BD
:105EA00002D000F0FCF804E000F0F8F8204600F022
:105EB000F7F80020207620680169C90617D5C16867
:105EC000C90614D56FF01001016108202076206802
:105ED000C06910F4407F204602D000F0E0F804E0F2
:105EE00000F0DCF8204600F0DBF800202076206887
:105EF0000169C90708D5C168C90705D56FF0010157
:105F00000161204600F0C9F820680169090608D53A
:105F1000C168090605D56FF080010161204603F0D4
:105F2000B4F820680169490608D5C168490605D555
:105F30006FF040010161204600F0B3F8206801696C
:105F400089060AD5C168890607D56FF0200101616D
:105F50002046BDE8104003F097B810BD38B505469F
:105F600005F138042078012801D1022032BD01203A
:105F700020700220607028688268DFF804321A40BE
:105F800082600868002850D0102853D0202856D0AE
:105F9000302859D040283ED0502828D0602830D012
:105FA00070280CD0B0F5805F03D0B0F5005F12D040
:105FB0004EE028688168C908C900816048E0CB6864
:105FC0004A688968286800F014F92868826842F0F5
:105FD000770181603CE0CB684A688968286800F0F6
:105FE00008F92868816841F48041816030E0CA681E
:105FF0004968286800F0D0F85021286800F0F1F8CE
:1060000026E0CA684968286800F0D8F86021286846
:1060100000F0E7F81CE0CA684968286800F0BCF89E
:106020004021286800F0DDF812E00021286800F027
:10603000D8F80DE01021286800F0D3F808E02021FE
:10604000286800F0CEF803E03021286800F0C9F895
:10605000012060700020207032BD000038B5054678
:1060600005F138042078012801D1022032BD012039
:10607000207002206070284600F049F82868C16846
:1060800021F04001C1602868C16821F48041C160ED
:10609000012060700020207032BD7047704770474B
:1060A0007047704710B40368364A90420BD0B0F185
:1060B000804F08D0344CA04205D0344CA04202D0CE
:1060C000334CA04203D123F070034C682343904229
:1060D0000BD0B0F1804F08D02B4CA04205D02B4CF8
:1060E000A04202D02A4CA04203D123F44073CC68D2
:1060F000234303608B68C3620B688362904202D1C2
:106100000969244A11600121416110BC704718B42B
:106110000268936823F070034C682343DB080C6823
:1061200054EAC30393604A68402A0CD0502A1BD01B
:10613000602A1ED0702A21D10B698A68C96800685C
:1061400001B010BC55E00268136A146A6408640068
:1061500014620268946924F0F004096944EA0111A8
:1061600091610068036209E00A698968006818BCE7
:1061700012E00A698968006818BC1FE011BC70470A
:106180008800FFFF002C0140000400400008004090
:10619000000C0040302C014010B4036A046A64080B
:1061A00064000462846924F0F00444EA021282610B
:1061B00023F00A021143016210BC704710B4036A55
:1061C00023F0100303628369046A23F4704343EAF3
:1061D0000232826124F0A00242EA0111016210BC85
:1061E0007047826822F07002114341F0070181601C
:1061F000704710B4846824F47F442143114341EA7A
:106200000321816010BC7047F8B50446002000905F
:1062100004F124052878012801D10220F2BD0120D3
:106220002870204602F0E8FD060054D1686820F48A
:10623000885040F002006860022001F08BFEDFF819
:10624000A0100968B1FBF0F04000009002E0009857
:10625000401E009000980028F9D1204602F084FDED
:106260002068816841F008018160FDF766FD0746FE
:106270002068816809070ED5FDF75FFDC01B0B285C
:10628000F6D3686820F0020040F01000686000203B
:1062900028700120F2BD816841F004018160FDF7A2
:1062A0004CFD07462068806840070ED5FDF745FD88
:1062B000C01B0B28F6D3686820F0020040F01000E5
:1062C0006860002028700120F2BD686820F002009C
:1062D00040F001006860002028703046F2BD0000E8
:1062E0002000002010B5FFF7F0FC00F011F8454C3D
:1062F0000022802104F1240002F06CFF0022202102
:1063000004F1A40002F066FF02F098FF002010BD27
:1063100080B500F002F8002002BD002210213A48AA
:1063200002F0DEBF70B50446384D287800282ED024
:10633000374E307C00280BD13B2C09D101207074E2
:10634000FF203449087000221021304602F0C8FFB7
:10635000707C00281ED0307C8455401C3074C0B244
:10636000042807DBAA2C05D1B07801F0B4F900208D
:1063700030820FE004280DDB4B2C0BD10020307451
:10638000B0782449087000207074287002E020461C
:1063900002F059FF002070BD70B5044601201E496F
:1063A00008702546174E212D0BD17078002808D192
:1063B000012070700020B07002462021301D02F0D4
:1063C0008FFF7078002814D0B07881190C71401CB0
:1063D000B070C0B208280CDB402D0AD100207070CC
:1063E000B0701022311D06F1A400FCF78BFA0120D9
:1063F0003070B078112802DB00207070B07000207F
:1064000070BD00008C0E00202414002022140020F7
:1064100010140020A4010020A5010020FFF75ABCA1
:1064200080B500F002F8002002BD0020704780B562
:106430003B4B012805D1002240211846FDF7EDFE17
:1064400004E0012240211846FDF7E7FE002002BDCE
:1064500080B50FF2D801012002F01DFE314802F094
:106460005DFF002802D04FF0FF3002BDFFF73CF97E
:10647000002002BD80B52C4802F050FF002802D059
:106480004FF0FF3002BDFFF752F9002002BD80B58A
:1064900002230A460146234803F023F8002806D0C9
:1064A0000FF29801012002F0F6FDFFF7D1FF002066
:1064B00002BD80B501230A4601461A4802F043FF97
:1064C000002804D0FFF7C4FF4FF0FF3002BD0020CA
:1064D00002BD10B582B001468DF80110000A8DF89A
:1064E00000000F4C00224FF480512046FDF795FE2E
:1064F0004FF47A73022269460B4802F024FF010030
:1065000005D00FF2500003F0D7FAFFF7B3FF0122D6
:106510004FF480512046FDF780FE002016BD00009C
:10652000000C0140C80F00202010002048616C5F63
:10653000537069315F4572726F720A0048616C5F17
:10654000537069315F52656164206572726F7221A8
:10655000210A000048616C5F537069325F457272B6
:106560006F72205B25785D0D0A00000038B5044687
:10657000DFF8A450A868020C8DF80020020A8DF8FC
:1065800001208DF80200E960084604700322694684
:10659000401CFCF7A7F9022C13D0062C07D00B2CBB
:1065A00009D0202C0DD0602C01D09F2C0CD10120C3
:1065B000E968487131BDE868FF2101710521417129
:1065C00031BD0420E968487131BD10B582B0124C6C
:1065D000E4600120FFF72BFF21469F20FFF7C6FF55
:1065E000E06841792046FFF764FF0022062120463B
:1065F00002F076FE04212046FFF749FF0020FFF756
:1066000016FFA0780090637822780FF21C01032017
:1066100002F041FD13BD00001000002080B5FFF71F
:10662000D4FF002002BD000053657269616C2046F2
:106630006C61736820496E6974203A204D49443A70
:10664000253032582C20547970653A253032582C38
:106650002044656E3A253032580A000010B50FF21A
:10666000A051032002F017FDDFF878450022102129
:10667000204602F035FE0022062104F1100002F04F
:106680002FFE07210B2000F0B3FA01210A2000F0B1
:10669000AFFA0021092000F0ABFA01210C20BDE87F
:1066A0001040A5E210B5DFF83C45607DC10706D576
:1066B000217AFF2901D0491C00E0FF212172C0F39B
:1066C0004000002806D0607AFF2801D0401C00E07E
:1066D000FF206072207AFF2805D0152803DB0021F7
:1066E000082000F0A2F8607AFF2806D0152804DB05
:1066F00000210920BDE8104097E010BD70B5DFF81B
:10670000E84404F13A05FF26288FC0F34030002802
:1067100001D0314600E00021002000F086F8288FEB
:10672000C0F38020002801D0314600E00021012084
:1067300000F07BF8288FC0F34020002801D03146BC
:1067400000E00021022000F070F8B5F900000128F7
:1067500001DA314600E00021032000F066F895F8E8
:106760003800C00701D5314600E00021052000F0C7
:106770005CF8288FC0F34000002801D0314600E0CB
:106780000021062000F051F8288FC0F38000002877
:1067900001D0314600E00021072000F046F8288FA4
:1067A000C0F3C000002801D0314600E000210A20DB
:1067B00000F03BF894F87400C0F34000002801D0CA
:1067C000314600E000210B2000F02FF894F874000F
:1067D000C0F38000002801D0314600E000210C20E9
:1067E00000F023F894F87400C0F3C000002801D032
:1067F000314600E000210D2000F017F894F87400F5
:10680000C0F30010002801D0314600E000210E2026
:1068100000F00BF894F87400C0F34010002800D189
:10682000002631460F20BDE8704010B5DFF8B423D4
:1068300000280CD1137D002905D103F0FE03137548
:106840000023137003E043F0010313751170012856
:106850000CD1137D002905D103F0FD03137500232E
:10686000537003E043F002031375517002280CD1FA
:10687000137D002905D103F0FB03137500239370EA
:1068800003E043F004031375917003280CD1137DCA
:10689000002905D103F0F70313750023D37003E03B
:1068A00043F008031375D17004280CD1137D00291F
:1068B00005D103F0EF0313750023137103E043F0D8
:1068C00010031375117105280CD1137D002905D112
:1068D00003F0DF0313750023537103E043F020033B
:1068E0001375517106280CD1137D002905D103F0D1
:1068F000BF0313750023937103E043F04003137546
:10690000917107280CD1137D002905D103F07F0375
:1069100013750023D37103E043F080031375D17125
:1069200008280CD1537D002905D103F0FE035375CF
:106930000023137203E043F0010353751172092819
:106940000CD1537D002905D103F0FD0353750023BD
:10695000537203E043F00203537551720A280CD1BD
:10696000537D002905D103F0FB0353750023937277
:1069700003E043F00403537591720B280CD1537D4F
:10698000002905D103F0F70353750023D37203E008
:1069900043F008035375D1720C280CD1537D0029A4
:1069A00005D103F0EF0353750023137303E043F0A5
:1069B0001003537511730D280CD1537D002905D197
:1069C00003F0DF0353750023537303E043F0200308
:1069D000537551730E280CD1537D002905D103F056
:1069E000BF0353750023937303E043F040035375D3
:1069F00091730F280CD1507D002905D100F07F0044
:106A000050750020D07303E040F080005075D173C2
:106A1000517DC80701D5402000E00020C1F34003AC
:106A2000002B01D0202300E000231843C1F3800392
:106A3000002B01D0102300E000231843C1F3C00352
:106A4000002B01D0082300E000231843C1F30013FA
:106A5000002B01D0042300E000231843C1F34013AE
:106A6000002B01D0022300E00023034308468009E5
:106A700000F001001843C90901D0802100E0002185
:106A80000143127DD00701D5402000E00020C2F371
:106A90004003002B01D0202300E000231843C2F361
:106AA0008003002B01D0102300E000231843C2F321
:106AB000C003002B01D0082300E000231843C2F3D9
:106AC0000013002B01D0042300E000231843C2F37D
:106AD0004013002B01D0022300E0002303431046A3
:106AE000800900F001001843D20901D0802200E0A3
:106AF000002242EA0004082000F07AF8214607202C
:106B0000BDE8104074E003B581B0BDF8040000F0AA
:106B100005F8BDF80600BDE80E4031E070B54FF451
:106B20007A7190FBF1F14FF47A7202FB110080B29E
:106B30000A2190FBF1F1642290FBF2F32B4A0A2523
:106B40002C4691FBF4F405FB1414E4B2A45C44F06D
:106B500080042E4693FBF6F605FB1633DBB29E5CF3
:106B600005FB1100C0B2815C042000F041F8214611
:106B7000052000F03DF831460620BDE8704037E0C2
:106B800070B54FF47A7190FBF1F14FF47A7202FB19
:106B9000110080B20A2190FBF1F1642290FBF2F324
:106BA000124A0A252C4691FBF4F405FB1414E4B2B6
:106BB000A45C44F080042E4693FBF6F605FB1633E6
:106BC000DBB29E5C05FB1100C0B2815C012000F0CD
:106BD0000FF82146022000F00BF831460320BDE8F3
:106BE000704005E0B8130020500F00200000002086
:106BF00000F00F0001EB002080B2FFF76ABC00003C
:106C0000696E6974206173313130372E2E2E2E2E2D
:106C10000A00000080B500221421DFF8280402F0E9
:106C20005FFBDFF82404B0F872104FF2FF3211401E
:106C3000A0F8721000F0D3F9002002BD30B4DFF8E4
:106C4000043400241C60DFF8044425889D81E48816
:106C5000DC81002A08D0022A0CD00DD2C821D981AB
:106C600018810846588107E04FF42A7098811881EE
:106C7000598101E018815981002030BC704730B43F
:106C8000DFF8C0038189C289DFF8C43304891D8815
:106C9000641B45899B88EB1A062C01DB491D0AE021
:106CA00014F1050F01DA491F05E0012C00DB491C36
:106CB000002C00D5491E81F30C018181062B01DBDC
:106CC000521D0AE014F1050F01DA521F05E0012BF5
:106CD00000DB521C002B00D5521E82F30C01C18137
:106CE0000168491C0160C189808930BC6EE1DFF810
:106CF00064038188491C818089B20A2904DB002150
:106D00008180C188491CC1807047000003282AD8AF
:106D1000DFE800F0020C1620DFF82C03B0F8721048
:106D20004FF6F8721140A0F872107047DFF81803A0
:106D30000121B0F8722061F30202A0F872207047BE
:106D4000DFF804030221B0F8722061F30202A0F818
:106D500072207047DFF8F0020421B0F8722061F36E
:106D60000202A0F87220704738B505460024FFF7EC
:106D7000BEFFB848C088854201D2022032BDB64865
:106D800001784278511882785118C078401800D0A4
:106D90000124204632BD70B50546FFF7A8FFAD4877
:106DA000C688AE4CB54208D2E08F4FF6FF3108409E
:106DB000E08700F014F9022070BD2188B1F5E17F71
:106DC0000BDD0020FFF7A2FFE08F4FF6FF310840F8
:106DD000E08700F004F9002070BD1E2E0AD10921C1
:106DE00081800222142140F27620FFF727FF012044
:106DF000FFF78CFF1F2E05D1E08F40F48060E08705
:106E000000F0EDF8012070BD70B50446FFF76FFF8C
:106E10009048C588002D0BD18088022808DA02220C
:106E2000782140F27620FFF709FF0220FFF76EFF7E
:106E30008A4EAC420BD20020FFF768FFF08F4FF66E
:106E4000FF310840F08700F0CAF8022070BD30889A
:106E500040F27621884201DB002070BD012070BD28
:106E600070B50446FFF743FF7A48C588002D05D169
:106E70008088082802DA0320FFF748FF784EAC42EA
:106E80000BD20020FFF742FF708F4FF6FF31084012
:106E9000708700F0A4F8022070BD3088642801DB00
:106EA000002070BD012070BD10B56A4C2078052807
:106EB00000F28A80DFE800F003162D445B7262481E
:106EC000B0F87200C0F3C00000287DD0654800789B
:106ED000FF2879D000220821201D02F001FA0120AC
:106EE000207010BD0A20FFF73FFF022807D10022C3
:106EF0000821201D02F0F4F90020207010BD0028A8
:106F000062D100220821201D02F0EAF9022020703F
:106F100010BD0A20FFF728FF022807D10022082110
:106F2000201D02F0DDF90020207010BD00284BD19B
:106F300000220821201D02F0D3F90320207010BD8B
:106F40000820FFF728FF022807D100220821201D72
:106F500002F0C6F90020207010BD002834D10022B4
:106F60000821201D02F0BCF90420207010BD202053
:106F7000FFF74AFF022807D100220821201D02F056
:106F8000AFF90020207010BD00281DD1002208217B
:106F9000201D02F0A5F90520207010BD0820FFF784
:106FA0005FFF022807D100220821201D02F098F976
:106FB0000020207010BD002806D100220821201DCD
:106FC000BDE8104002F08CB910BD58E610B50C4673
:106FD00002F099FD2046BDE8104002F09ABD22481B
:106FE0001949B1F87210C1F38021002903D00122A0
:106FF0004021FDF712B900224021FDF70EB91B48D0
:107000001149B1F87210C1F3C021002904D0012246
:107010004FF40071FDF701B900224FF40071FDF744
:10702000FCB811480849B1F87210C1F300310029C9
:1070300003D001228021FDF7F0B800228021FDF766
:10704000ECB80000FC130020500F0020B20F00200D
:10705000B40F002040140020A10F0020840F002056
:10706000880F0020A401002000140140000C014002
:1070700080B5FFF7B4FFFFF7C2FFBDE80140D0E7DE
:1070800080B500220221DFF8000402F029F9002077
:1070900002BD70B5DFF8F4534FF400712846FDF7D8
:1070A000B5F806464FF480712846FDF7AFF8DFF8D3
:1070B000E04300EB460094F8751060F3010184F89A
:1070C00075104FF400612846FDF7A0F806464FF40E
:1070D00080612846FDF79AF800EB460094F8751099
:1070E00060F3830184F875104FF400512846FDF7D2
:1070F0008DF806464FF480512846FDF787F800EBDF
:10710000460094F8751060F3051184F875104FF47B
:1071100000412846FDF77AF806464FF4804128469C
:10712000FDF774F894F8751001F03F0100EB46008C
:1071300041EA801084F87500002070BD70B582B0FF
:10714000D34C94F87400C0F380018DF80010C0F3A4
:10715000C0018DF80110C0F300118DF80210C0F3CA
:1071600040118DF80310C0F34000002803D0012027
:1071700000F004F902E0002000F000F9C54D0422FF
:107180002946684602F0D2FC40B2002801D1002016
:1071900076BDC14E94F87400C00740F1868000228D
:1071A00080213046FDF739F800224FF480713046D7
:1071B000FDF733F894F87400C0F3800000280BD07A
:1071C00000224FF480713046FDF727F8012280211C
:1071D0003046FDF722F80AE0002280213046FDF714
:1071E0001CF801224FF480713046FDF716F894F830
:1071F0007400C0F3C00000280CD000224FF480615E
:107200003046FDF70AF801224FF400713046FDF7D1
:1072100004F80BE000224FF400713046FCF7FDFF4C
:1072200001224FF480613046FCF7F7FF94F87400B8
:10723000C0F3001000280CD000224FF480513046DB
:10724000FCF7EBFF01224FF400613046FCF7E5FF4D
:107250000BE000224FF400613046FCF7DEFF012214
:107260004FF480513046FCF7D8FF94F87400C0F317
:10727000401000280CD000224FF480413046FCF72B
:10728000CCFF01224FF400513046FCF7C6FF6EE000
:1072900000224FF400513046FCF7BFFF01224FF4AB
:1072A00080413046FCF7B9FF61E000224FF4807165
:1072B0003046FCF7B2FF00224FF480613046FCF705
:1072C000ACFF00224FF480513046FCF7A6FF0022AD
:1072D0004FF480413046FCF7A0FF94F87400C0F3EF
:1072E0008000002805D0012280213046FCF795FF60
:1072F00004E0002280213046FCF78FFF94F87400F0
:10730000C0F3C000002806D001224FF400713046BF
:10731000FCF783FF05E000224FF400713046FCF7D4
:107320007CFF94F87400C0F30010002806D00122FE
:107330004FF400613046FCF770FF05E000224FF487
:1073400000613046FCF769FF94F87400C0F3401008
:10735000002806D001224FF400513046FCF75DFFB3
:1073600005E000224FF400513046FCF756FF04229E
:1073700069462846FBF7C6FA002076BD80B5474B24
:10738000002805D0012240211846FCF746FF04E002
:10739000002240211846FCF740FF002002BD38B50E
:1073A0003B4C94F87410002804D041F03C0084F861
:1073B000740003E001F0C30084F87400364D00222D
:1073C0004FF480712846FCF728FF00224FF48061BB
:1073D0002846FCF722FF00224FF480512846FCF794
:1073E0001CFF00224FF480412846FCF716FF94F85A
:1073F0007400C0F38000002805D0012280212846B7
:10740000FCF70BFF04E0002280212846FCF705FF73
:1074100094F87400C0F3C000002806D001224FF495
:1074200000712846FCF7F9FE05E000224FF40071D8
:107430002846FCF7F2FE94F87400C0F30010002810
:1074400006D001224FF400612846FCF7E6FE05E075
:1074500000224FF400612846FCF7DFFE94F8740028
:10746000C0F34010002806D001224FF400512846F6
:10747000FCF7D3FE05E000224FF400512846FCF74C
:10748000CCFE002032BD0000C40F002000140140DB
:10749000500F00206014002000180140001001402F
:1074A00080B500224FF480717D48FCF7B6FEBDE840
:1074B000014080B501207B49087000224FF48071A3
:1074C0007748FCF7AAFE002000F05CF86420FCF787
:1074D00037FC0120BDE8024054E0012072490870E9
:1074E0007047000010B582B014208DF8020006200D
:1074F0008DF8010000208DF800006B4C20780028EA
:107500003FD0401E08283CD8DFE800F0050A141ED2
:10751000212A2D30390000F0CFF80020207013BD53
:10752000002302220DF10201A12000F0E1F8032066
:10753000207013BD002302220DF10101A22000F0F2
:10754000D7F80420207013BD0520207013BD002340
:1075500001226946A52000F0CBF80620207013BD5B
:107560000720207013BD0820207013BD00230122C6
:107570006946A62000F0BCF80920207013BD002049
:10758000207013BD494B002804D0002280211846EA
:10759000FCF743BE012280211846FCF73EBE30B402
:1075A000434901F13402C31C1C7814725C78947254
:1075B0009C785472DC78D4721C7914735C7954739F
:1075C0009C79D4811C7ADB7904EB0323138200239A
:1075D00005E01C18247B5D1885F848405B1C032BD4
:1075E000F7DB002305E01C18E47B5D1885F84B40B1
:1075F0005B1C062BF7DB002308E000EB4304A57DB2
:10760000647D05EB042421F813405B1C142BF4DB90
:1076100000230AE000EB43043D346578247805EB51
:10762000042401EB43052C855B1C042BF2DB00F1E9
:1076300045035C781D7804EB05241480DC789D7884
:1076400004EB052454805C791B7904EB03239380BD
:10765000002206E0131893F84B30541884F8583081
:10766000521C042AF6DB002206E0131893F84F3070
:10767000541884F85130521C042AF6DB30BC704791
:1076800038B50C4C257801210920FFF7CEF8752D6F
:1076900005D0022D03D12046BDE832407FE731BD41
:1076A0000008014022140020231400200010014093
:1076B000500F0020B00E002000B583B068460FF2D6
:1076C000DC010CC90CC006216846FEF7A7FE642049
:1076D000FCF736FB07BD1CB569460FF2C80218CA95
:1076E00018C18DF8020005216846FEF797FE13BD0C
:1076F0002DE9F04385B004460D4616461F464FF06F
:107700000008A6F101095FFA89F94246102168468E
:1077100001F0E6FD02208DF800006846012141706D
:10772000711DC9B2002F8670C470424619D005E0A1
:10773000535D6C4614192371521CD2B24A45F7DBD3
:1077400001228B1E9A4219DA135C98445FFA88F87A
:10775000521CD2B2F5E7535D6C4614192371521CCA
:10776000D2B24A45F7DB012205E0135C98445FFA88
:1077700088F8521CD2B28B1E9A42F6DB0818801E83
:1077800080F80080032242706846FEF747FE6420BE
:10779000FCF7D6FA05B0BDE8F0830000020001C195
:1077A000C20300003B3F004F4B00000038B50024EF
:1077B0006A4D01212846FCF729FD002800D001244C
:1077C00002212846FCF722FD002802D044F00204E2
:1077D00001E004F0FD0404212846FCF717FD002811
:1077E00002D044F0040401E004F0FB040821284620
:1077F000FCF70CFD002802D044F0080032BD04F074
:10780000F70032BD80B5FFF7D1FF554902460A8027
:1078100048F26A024A805349000100F0F000524ADF
:107820001018086009680FF25410BDE8044002F017
:1078300043B980B502F0ACF9FFF7E4FF002002BDC8
:107840002DE9F043ABB0474C21680FF2501002F025
:1078500033F9464E706B45682A4621680FF25C107A
:1078600002F02AF90822706B00F11401201DFBF7C9
:1078700049F83F4E96F86E70C5F30318B84504D129
:10788000280A00023B49884201D0002051E0012132
:107890000820FEF7CAFF05F00F094A460FF248110B
:1078A000012001F0F8FB009743464A4629460FF2B3
:1078B0004C1002F001F9B9F1000F03D0B9F1080F33
:1078C00013D035E00822211D01A8FBF71BF89DF815
:1078D00006309DF805209DF804100FF25C1002F0B0
:1078E000EBF801A800F054FA22E00022A02103A83E
:1078F00001F0F6FC7822314603A8FBF703F80025D7
:1079000014E00022082101A801F0EAFC082203A8E3
:1079100000EBC50101A8FAF7E5FF01A920682818C6
:1079200000F00AF81420FCF70BFA6D1C0F2DE8DBB1
:1079300001202BB0BDE8F08310B50C4C226B5060D9
:107940000822206B1430FAF7CDFF0A212046FBF7FE
:107950004EFE094908700428F7D010BD0010014000
:10796000BE0F00203414002000EEEC1CA0110020FB
:10797000500F002000EEEC0C6C1400204472765F77
:107980006765745F6D7962644944206D79626F61E7
:1079900072645F69645B25785D0A00004472765FFB
:1079A00063616E315F72637620206D79626F617200
:1079B000645F69645B25785D200D0A004472765F20
:1079C00063616E315F72637620206D79626F6172E0
:1079D000645F69645B25785D2045787449645B2544
:1079E000785D0D0A0000000043414E20434D4420C5
:1079F000636D645B25645D0A000000000D0A0A3DAA
:107A00003E43414E315F46726F6D44426F64206960
:107A1000645B307825785D2020636D645B25785D3C
:107A20002062645F6E756D5B25645D2D6D796964A0
:107A30005B25645D200D0A003030303043414E310B
:107A40005F46726F6D44426F64205B25785D5B25F5
:107A5000785D5B25785D0D0A0000000010B502F02E
:107A60003DF85A4C0021204601F039FA10212046F9
:107A7000BDE8104001F033BA38B5554C2078401CB1
:107A800010F00100207001D1FFF72CFDFFF701FB82
:107A9000504D288AC0F3C00100290BD04E49097807
:107AA000002902D0FFF700FA07E04FF6F87108400E
:107AB000288202E0FF20494908704FF47A70A188BB
:107AC000414340F6FF7291FBF2F1698021894843FE
:107AD000114690FBF1F02880A089FA214843114615
:107AE00090FBF1F0E880288A218A212903DB40F00D
:107AF0000800288203E04FF6F7710840288240F61C
:107B0000C410218B414391FBF2F1A1F5FA71698117
:107B1000A18A4843114690FBF1F0288130486988DA
:107B20000180E9884180FFF7A3FAFFF707FBBDE872
:107B30003140FEF7E3BD70B52A4C2B4D13E075289C
:107B400001D11720607061780FF2E00001F0B4FFFE
:107B500028786178884206D3FFF792FD00202349F8
:107B600008702870207001F087FB064616F1010F9F
:107B70002AD03346227829780FF2780001F09CFF52
:107B8000207800280CD1022E0AD10120207000207C
:107B90002870FF20607000228021154801F01AFB38
:107BA00020780028DFD0287811494654401C2870DE
:107BB000C0B20328CCD108780228C0D189785529D1
:107BC000BDD155206070BEE770BD0000E8130020F5
:107BD00018110020B20F0020A6010020A4010020EF
:107BE000C8130020A7010020201400206D140020DD
:107BF000B00E002047657453657269616C4275660A
:107C00002020626D735F646174615F636E745B25D5
:107C1000645D20626D735F6672616D655B25645D96
:107C200020645B253032585D0D0A0000626D735F81
:107C30006672616D652066737A5B25645D0D0A006E
:107C40001CB5402101724178412904D0532928D024
:107C5000562904D013BD01204A49087013BD81780C
:107C60008DF8041001A9C2784A7002798A704179AE
:107C70008DF80010694682794A70C079887001A831
:107C800001F0BEFF0446684601F0BAFF0222014639
:107C900089B2204680B2FEF7D1FF00203949087032
:107CA00013BD81788DF8041001A9C2784A70027959
:107CB0008A7041798DF80010694682794A70C079DE
:107CC000887001A801F09CFF0446684601F098FF07
:107CD000E4B2082C3ED8DFE804F0050B11171D2391
:107CE0002A31380028498A7860F382028A7013BDED
:107CF00025498A7860F3C3028A7013BD22498A78C5
:107D000060F304128A7013BD1F498A7860F345122C
:107D10008A7013BD1C498A7860F341028A7013BDD2
:107D20001949C0B20A8860F38A220A8013BD164935
:107D3000C0B20A8860F3CB220A8013BD1249C0B2D8
:107D40000A8860F30C320A8013BD0F498A7860F309
:107D500000028A7013BD10B57C20F9F789F804463B
:107D600078220A49A01CFAF7BDFD21202070782056
:107D70006070402084F87A002046BDE81040F9F792
:107D8000D2B90000A6010020C20F0020500F002031
:107D900038B504788178407801EB0025ADB22A46E9
:107DA00021460FF2180001F087FE002C04D128466E
:107DB000BDE83240FFF7F3BA31BD00004472765F90
:107DC000636F6E736F6C655F53657456616C756538
:107DD00046726F6D4420776861745B25645D207620
:107DE000616C75655B25645D0A0000002DE9F0415A
:107DF00082B004460026DFF8B4522078C00746D58A
:107E0000E86940F08050E861E86900F08050009037
:107E10000098DFF89C72386840F480703860FBF797
:107E20008CFF80463868C00506D4FBF786FFA0EBC0
:107E300008006528F6D377E0286A00F4407061688E
:107E400001F44071884222D0286A20F44070DFF8A3
:107E5000641201220A6032460A602862800710D547
:107E6000FBF76BFF8046286AC0F34000002808D16A
:107E7000FBF763FFA0EB080041F289318842F2D39F
:107E800052E0286A20F44070616808432862207834
:107E9000800705D5686820F44040A1680843686001
:107EA0002078400705D5E86A20F40030E1680843EF
:107EB000E8622078000705D5E86A20F4802021696F
:107EC0000843E862E86A800302D4E86A400300D508
:107ED0000126012E32D12868C00027D4A069296864
:107EE000490104D5E96A01F0F001814224D1E96A2F
:107EF00021F0F0010843E862E86A20F4704061690B
:107F00000843E8620120DFF8B0110860FBF715FFB5
:107F100080462868C0F3407000280FD1FBF70DFFA2
:107F2000A0EB08006528F4D3032011E0E86A00F410
:107F300070406169884201D0012009E02078C006C4
:107F400005D5686820F48000E16908436860002076
:107F5000BDE8F68130B587B0044668460FF264117B
:107F60002CC92CC00FF268111022FAF7CBFC0020AC
:107F7000012C6ED0022C00F08D80042C3CD0082CFB
:107F80004FD0102C40F0908048494B680A68D201CD
:107F900040F18A806846C3F38342125CD80321D53E
:107FA00003A8CB6A03F00F03185CCB6ADB030FD581
:107FB000CB6AC3F303135B1CCC6AC4F30324A41C75
:107FC0003E4DB5FBF3F36343B3FBF0F0504303E0E6
:107FD0003A4BB3FBF0F050439DF80D309A4203D179
:107FE000400801E036485043496849025CD44000EB
:107FF0000321B0FBF1F057E02C49CA6A920314D573
:108000000A68D20050D5C86AC0F30310431CC86A7E
:10801000C0F30330801C2949B1FBF3F14843400011
:1080200042E02249CA6A520302D4FCF7FAFC3BE060
:108030000A68D20038D5C86AC0F30310431CC86A66
:10804000C0F30330801C1D49B1FBF3F148434000ED
:108050002AE016490B6A40F202321A40B2F5817FDB
:1080600002D14FF400401FE003F44072B2F5007FEC
:1080700005D14A6A920702D549F6404014E003F45C
:108080004072B2F5407F0FD1096889030CD54FF2D9
:10809000244009E0FCF720FD04494968C1F381311F
:1080A000491C4900B0FBF1F007B030BD00100240A0
:1080B00000700040400442427000424200127A00C8
:1080C00000093D0000000405060708090000000D36
:1080D0000102030405060708090A0B0C0D0E0F1018
:1080E000002801D10120704790F82110002902D109
:1080F000002180F82010022180F8211001680A6810
:108100006FF30D1243681A4383681A43C3681A4316
:1081100003691A4343691A4383691A43C3691A43BB
:108120000A6000214163012180F82110002070477E
:1081300038B5044694F82000012801D1022032BD50
:10814000012084F82000022084F8210020680568BE
:108150006D086D000560204600F0B4FB20680168E2
:1081600041F0020101602068016841F004010160F2
:108170002068016841F0080101602068016841F051
:1081800001010160002032BD70B50446206801463F
:10819000DFF8F856DFF8F866B14246D3DFF8F42688
:1081A0001268A94227D0DFF8F036994229D0DFF8CB
:1081B000EC3699422BD0DFF8E836994202D14FF4E1
:1081C000004130E0DFF8DC36994202D14FF4002163
:1081D00029E0DFF8D436994202D14FF4000122E0C1
:1081E000DFF8C836994202D14FF000611BE0DFF89A
:1081F000C036994201D1082115E0DFF8B83699421E
:1082000001D180210FE0DFF8B036994202D14FF45E
:10821000006108E0DFF8A436994202D14FF4004132
:1082200001E04FF40021114045E0DFF89426126888
:10823000A94227D0DFF86036994229D0DFF85C36B2
:1082400099422BD0DFF85836994202D14FF40041C1
:1082500030E0DFF85036994202D14FF4002129E096
:10826000DFF84436994202D14FF4000122E0DFF8F2
:108270003C36994202D14FF000611BE0DFF8303606
:10828000994201D1082115E0DFF82836994201D141
:1082900080210FE0DFF82036994202D14FF40061CF
:1082A00008E0DFF81836994202D14FF4004101E0AE
:1082B0004FF400211140002900F0A7800168090750
:1082C00040F1A380016821F0080101602068B042FC
:1082D00045D3A84227D0DFF8C015884229D0DFF85F
:1082E000BC1588422BD0DFF8B815884202D14FF474
:1082F000004030E0DFF8AC15884202D14FF4002096
:1083000029E0DFF8A415884202D14FF4000022E0F2
:10831000DFF89815884202D14FF000601BE0DFF8CB
:108320009015884201D1082015E0DFF888158842B1
:1083300001D180200FE0DFF88015884202D14FF490
:10834000006008E0DFF87415884202D14FF4004065
:1083500001E04FF40020DFF83C15486044E0A842FB
:1083600027D0DFF83415884229D0DFF8301588424D
:108370002BD0DFF82C15884202D14FF4004030E0BA
:10838000DFF82015884202D14FF4002029E0DFF801
:108390001815884202D14FF4000022E0DFF80C15D6
:1083A000884202D14FF000601BE0DFF804158842DC
:1083B00001D1082015E0DFF8FC14884201D18020AB
:1083C0000FE0DFF8F414884202D14FF4006008E0B7
:1083D000DFF8E814884202D14FF4004001E04FF486
:1083E0000020DFF8DC14486004F12800C16841F087
:1083F0000101C160042184F82110002184F82010BB
:108400008168080001D02046884720680146B142B3
:1084100046D3DFF880241268A94227D0DFF87834E9
:10842000994229D0DFF8743499422BD0DFF87034A8
:10843000994202D14FF4804130E0DFF8683499422C
:1084400002D14FF4802129E0DFF85C34994202D157
:108450004FF4800122E0DFF85434994202D14FF00A
:1084600080611BE0DFF84834994201D1042115E016
:10847000DFF84034994201D140210FE0DFF8383471
:10848000994202D14FF4806108E0DFF8303499421C
:1084900002D14FF4804101E04FF48021114045E0CA
:1084A000DFF81C241268A94227D0DFF8EC33994288
:1084B00029D0DFF8E83399422BD0DFF8E433994232
:1084C00002D14FF4804130E0DFF8D833994202D135
:1084D0004FF4802129E0DFF8D033994202D14FF4E4
:1084E000800122E0DFF8C433994202D14FF080616D
:1084F0001BE0DFF8BC33994201D1042115E0DFF81D
:10850000B433994201D140210FE0DFF8AC339942F6
:1085100002D14FF4806108E0DFF8A033994202D124
:108520004FF4804101E04FF480211140002900F018
:1085300099800168490740F195800168890603D454
:10854000016821F0040101602068B04245D3A842CF
:1085500027D0DFF84413884229D0DFF8401388423F
:108560002BD0DFF83C13884202D14FF4804030E03A
:10857000DFF83013884202D14FF4802029E0DFF881
:108580002813884202D14FF4800022E0DFF81C1348
:10859000884202D14FF080601BE0DFF8141388425C
:1085A00001D1042015E0DFF80C13884201D14020EE
:1085B0000FE0DFF80413884202D14FF4806008E036
:1085C000DFF8F812884202D14FF4804001E04FF406
:1085D0008020DFF8C01248603AE0A84221D0DFF8DE
:1085E000B812884222D0AD49884224D0AC49884292
:1085F00002D14FF4804029E0AA49884202D14FF4C9
:10860000802023E0A849884202D14FF480001DE079
:10861000A649884202D14FF0806017E0A449884201
:1086200001D1042012E0A349884201D140200DE08D
:10863000A149884202D14FF4806007E09F498842F7
:1086400002D14FF4804001E04FF480209C49486003
:10865000112084F8210004F128004168080001D0AD
:108660002046884720680146B1423BD3894A1268B8
:10867000A94220D0884B994222D0884B994224D0DD
:10868000874B994202D14FF4005129E0854B994222
:1086900002D14FF4003123E0834B994202D14FF4D1
:1086A00000111DE0814B994202D14FF0007117E09B
:1086B0007F4B994201D1022112E07E4B994201D1B8
:1086C00020210DE07C4B994202D14FF4007107E06C
:1086D0007A4B994202D14FF4005101E04FF400313E
:1086E00011403AE0764A1268A94220D06A4B99427A
:1086F00022D06A4B994224D0694B994202D14FF45F
:10870000005129E0674B994202D14FF4003123E038
:10871000654B994202D14FF400111DE0634B994221
:1087200002D14FF0007117E0614B994201D1022153
:1087300012E0604B994201D120210DE05E4B99423D
:1087400002D14FF4007107E05C4B994202D14FF423
:10875000005101E04FF400311140002900F09480F5
:108760000168890740F190800168890603D4016897
:1087700021F0020101602068B0423AD3A84220D023
:108780004549884222D04549884224D044498842FC
:1087900002D14FF4005029E04249884202D14FF4FF
:1087A000003023E04049884202D14FF400101DE020
:1087B0003E49884202D14FF0007017E03C498842A0
:1087C00001D1022012E03B49884201D120200DE076
:1087D0003949884202D14FF4007007E03749884296
:1087E00002D14FF4005001E04FF4003029494860B5
:1087F00039E0A84220D02849884222D0274988421F
:1088000024D02749884202D14FF4005029E025495D
:10881000884202D14FF4003023E02349884202D13C
:108820004FF400101DE02149884202D14FF0007042
:1088300017E01F49884201D1022012E01D498842F9
:1088400001D120200DE01C49884202D14FF4007074
:1088500007E01A49884202D14FF4005001E04FF47A
:1088600000301749486004F12800C168C160012147
:1088700084F82110002184F820100168080003D03A
:108880002046BDE87040084770BD00000800024067
:1088900081000240000402401C00024030000240FF
:1088A00044000240580002406C0002408000024038
:1088B000080402401C040240300402404404024008
:1088C0000000024010B40468636003684468102C20
:1088D00003D19A600068C16002E099600068C260DC
:1088E00010BC7047F8B504460025002C01D10120CA
:1088F000F2BD04F124067068002805D12846B06056
:1089000030702046FCF70EFE204600F075FA7168C4
:10891000C90661D400285FD1716821F4885141F003
:1089200002017160E3686168E269114341EA430151
:10893000A268B2F5807F01D0012A02D14FF4807283
:1089400000E02A466769012F10D1002B06D1A369E8
:108950005B1E5B0343F400631A4307E0736843F054
:1089600020037360B36843F00103B36023685F685A
:1089700027F469473A435A6022689368DFF85474D1
:108980003B400B439360A268B2F5807F02D122691D
:10899000521E15052268D36A23F470032B43D36259
:1089A00022689268DFF830341A408A4208D10021E8
:1089B000B160716821F0020141F001017160F2BD06
:1089C000706820F0020040F010007060B06840F065
:1089D0000100B0600120F2BD706840F010007060CE
:1089E0000120F2BD38B5044604F124052878012899
:1089F00001D1022032BD01202870204600F0B4F9D8
:108A000000286ED16968DFF8D423114041F48071E9
:108A10006960DFF8CC1322688A4208D1DFF8C423EA
:108A2000126802F47022521E9241D20F00E001221D
:108A3000002A6A680DD022F480126A6022685268A7
:108A400052051FD56A6822F4005242F480526A60CF
:108A500018E042F480126A602268DFF88C339A4290
:108A600001D08A4205D1DFF87C23126802F48062CB
:108A700000E00022002A05D06A6822F4005242F485
:108A800080526A606A68D20404D5AA6822F006029D
:108A9000AA6001E00022AA6000222A706FF00202A0
:108AA00023681A602268936803F46023B3F5602F8B
:108AB00012D18A4208D1DFF82C13096801F4702121
:108AC000491E8941C90F00E00121002904D09168A5
:108AD00041F4A001916032BD916841F48011916030
:108AE00032BD0021297032BD2DE9F84304460D4600
:108AF00016462068DFF8F072B84203D0DFF8E012C3
:108B0000884205D1DFF8DC02006800F4702000E044
:108B10000020002840F09E8004F1240898F800000E
:108B2000012801D1022098E0012088F800002046A9
:108B300000F01AF98146B9F1000F40F08780D8F8AB
:108B40000400DFF8AC12084040F48070C8F804005C
:108B5000DFF88C022168814208D1DFF888120968A9
:108B600001F47021491E8941C90F00E0012100294B
:108B700012D0D8F8040020F48010C8F8040020684F
:108B80004068400524D5D8F8040020F4005040F493
:108B90008050C8F804001BE0D8F8041041F480119C
:108BA000C8F804102168B94201D0814205D1DFF82C
:108BB0003402006800F4806000E00020002807D044
:108BC000D8F8040020F4005040F48050C8F80400A5
:108BD000D8F80400C00406D5D8F8080020F0060034
:108BE000C8F8080002E00020C8F80800002088F853
:108BF00000000FF24920216A88620FF29120216A59
:108C0000C8620FF29520216A08636FF002002168A4
:108C100008602068816841F48071816033462A468B
:108C2000206800F14C01206AFFF782FA2068816811
:108C300001F46021B1F5602F816803D141F4A001F6
:108C4000816009E041F48011816005E0002088F82E
:108C5000000001E04FF001094846BDE8F28370478B
:108C600070477047F8B40A4600210B46009300F1A4
:108C700024031C78012C01D1022073E001241C7014
:108C80005768146805681F26072F0BD27F1E07EB55
:108C90008707D5F834C0BE402CEA0606BC403443F2
:108CA0006C6318E00D2F0BD2FF1F07EB8707D5F879
:108CB00030C0BE402CEA0606BC4034432C630AE0B8
:108CC0000D3F07EB8707D5F82CC0BE402CEA0606FF
:108CD000BC403443EC6295680468166807270A2E86
:108CE0000BD30A3E06EB4606D4F80CC0B7402CEA7C
:108CF0000707B5403D43E56009E006EB4606D4F8BA
:108D000010C0B7402CEA0707B5403D432561146801
:108D1000102C01D0112C22D10068334CA04219D163
:108D2000846824021BD4846844F4000484601068BE
:108D3000102814D12D4800682E4AB0FBF2F000EB49
:108D40008002500000900098002808D00098401E33
:108D50000090F8E7586840F020005860012100209A
:108D600018700846F2BC704738B5044600200090E1
:108D700020688168C9072AD4816841F001018160B7
:108D80001A4800681B49B0FBF1F0009002E000981F
:108D9000401E009000980028F9D1FAF7CEFF054652
:108DA00020688068C00712D4FAF7C7FF401B032869
:108DB000F6D304F12400416841F01001416081685C
:108DC00041F00101816000210170012032BD0020CD
:108DD00032BD0000FDF7E1FFFE0E1FFFFEFDFFFFAD
:108DE000002801400424014000240140200000200C
:108DF000FEF1FFFF40420F0038B50446206881684D
:108E0000C90719D58168490849008160FAF795FFBB
:108E1000054620688068C0070ED5FAF78EFF401B14
:108E20000328F6D3A06A40F01000A062E06A40F088
:108E30000100E062012032BD002032BD80B5416AF0
:108E40008A6A12F0500F1CD1886A40F40070886260
:108E50000868806800F46020B0F5602F0DD1C86804
:108E600000280AD1886A20F480708862886AC00469
:108E700003D4886A40F0010088620846FFF7EFFEDD
:108E800001BD096A096BBDE80440084780B5406A26
:108E9000FFF7E6FE01BD000080B5406A816A41F03F
:108EA00040018162C16A41F00401C162FFF7D9FE4D
:108EB00001BD000010B5040001D1012010BD2079D2
:108EC000002804D1002060712046FCF7C7FB022077
:108ED00020710020206101202071002010BD10B4FD
:108EE0004279012A01D1022024E0012242710222AA
:108EF00002710268136801248C40234313600268E6
:108F00000029116808D101F03C013C290DD15168BC
:108F100041F00101516008E001F47011B1F5701FDA
:108F200003D1516841F0020151600121017100211A
:108F30004171084610BC704730B44379012B01D110
:108F400002201CE0012343710223037103681C68A3
:108F500040F6FE759540AC430D6849682943914041
:108F60002143196001680B68C02404FA02F223EA65
:108F700002020A600121017100214171084630BCE2
:108F8000704718B4002400940068009000290098ED
:108F900004D102F108010818009003E002F1140165
:108FA0000818009000980360204612BC704700002B
:108FB00010B5040001D1012010BD94F85100002823
:108FC00002D12046FCF7D5FB022084F8510020682E
:108FD000016821F0400101606068A1680843E16810
:108FE00008432169084361690843A16901F40071DC
:108FF0000843E1690843216A0843A16A08432168DC
:109000000860A069000C00F00400616A0843216850
:109010004860E06A216808612068C16921F4006144
:10902000C1610020034908706065012084F8510087
:10903000002010BD6E1400200120704730B400F1F4
:1090400038021378012B01D102201BE00123137099
:109050000223537003685C6824F070045C6003684A
:109060005C680D682C435C6003689C6824F0800495
:109070009C600068836849681943816001205070D2
:109080000020107030BC704770477047000000002F
:109090000020704770470CB470B504460E46FFF7C9
:1090A000F7FF002C61D0002E5FD0354D00224FF429
:1090B0008071284600F014F9012C07D10FF2D0027C
:1090C0000FF2C401284600F09FFD23E0022C07D1D7
:1090D0000FF2D0020FF2C401284600F095FD19E00E
:1090E000032C04D123A1284600F08EFD12E0052CAC
:1090F00007D10FF2C4020FF2B801284600F084FD38
:1091000008E0062C06D10FF2B0020FF2B801284693
:1091100000F07AFD2846F9F78BFB04AA3146C0B26D
:10912000401900F08BFD05F1FC002E21017041700B
:1091300081700021C170134E2946304600F094FD25
:10914000012C05D0022C03D0052C01D0062C06D111
:109150000FF2780208A1304600F086FD05E0032CEE
:1091600003D106A1304600F07FFDFFF793FF70BCEE
:109170005DF80CFB5B4D5D0025730D000D000000DC
:109180008C0D00206400002025735B455D0000000D
:109190001B5B313B33316D000000000025735B57D2
:1091A0005D0000001B5B313B33336D0000000000AD
:1091B00025735B435D0000001B5B313B33326D0068
:1091C0000000000025735B525D0000001B5B306DEA
:1091D0000000000062F30F2262F31F42401810F0FB
:1091E000030308D0C91A1FD3DB0748BF00F8012DBD
:1091F00028BF20F8022D130030B41446154610394C
:1092000028BF20E93C00FAD8490728BF20E90C0014
:1092100048BF40F8042D890028BF20F8022D48BF20
:1092200000F8012D30BC7047C91818BF00F8012D97
:10923000CB0728BF00F8012D704700001948002116
:1092400041600160704738B5164B59684C1CE211FB
:1092500004EB12621212A4EB02251A68954206D1A1
:109260000FF2480000F028FC4FF0FF3032BD0E4AEC
:1092700042F821005D6032BD0A490A6848688242AE
:1092800002D14FF0FF307047074850F82200521CBF
:10929000D31102EB13631B12A2EB03220A60704787
:1092A0000000000058140020B00700200D0A202004
:1092B000205175657565206F766572666C6F772EC7
:1092C0002E2E2E2E2E2E2E2E2E726561725B256472
:1092D0005D2066726F6E745B25645D0D0A00000090
:1092E00062F30F2262F31F4200B500BF13009646DF
:1092F0009446103928BFA0E80C50FAD85FEA417CA8
:1093000028BF0CC048BF40F8042BC90728BF20F86D
:10931000022B48BF00F8012B00BD000010B500284B
:1093200001D1012010BD00F15004022161700168DB
:109330000A6822F040020A60FCF76AFA00206060C6
:109340006070207010BD70B582B005461E4605F1F4
:1093500050046078012840F0C280002901D0002A22
:1093600001D1012076BD2078012800F0B8800120CD
:10937000207012206070002060602963AA86EA864F
:10938000E864A864A863A887E887A86AB0F5005FC6
:1093900009D12868016821F400510160286801683A
:1093A00041F400510160A868B0F5004F04D128686D
:1093B000016841F48041016028680168490603D4CE
:1093C000016841F0400101606868E96800292CD11A
:1093D000002802D0E88E01281AD1286B411C29638D
:1093E00000782968C860E88E401EE88610E03346A1
:1093F00000220221284600F0F8FA00283AD1286B12
:10940000411C296300782968C860E88E401EE88600
:10941000E88E0028EBD1A86AB0F5005F35D1286846
:10942000016841F4805101602FE0002802D0E88EED
:10943000012814D1286B00882968C860286B801C1B
:109440002863E88E401EE88609E0286B00882968BA
:10945000C860286B801C2863E88E401EE886E88E72
:10946000002809D0334600220221284600F0BDFA28
:109470000028EAD0032076BDA86AB0F5005F04D1C9
:109480002868016841F480510160334600220221BE
:10949000284600F0AAFA002805D0606840F01000C5
:1094A0006060032076BD334601228021284600F00B
:1094B0009CFA002805D0606840F01000606003202E
:1094C00076BDA868002805D12868C1680091806829
:1094D00000900098012060700020207076BD02206E
:1094E00076BD70B582B004461D460020ADF8000080
:1094F00004F150067078012840F0F480002901D072
:10950000002A01D1012076BD3078012800F0EA80E0
:10951000012030702220707000207060A163A2874B
:10952000E287A064E0642063A086E086A068B0F5CE
:10953000004F04D12068036823F480430360A06ACD
:10954000B0F5005F09D12068036823F4005303607D
:109550002068036843F4005303606068B0F5827FBD
:109560000BD1A068002808D1002030700095134668
:109570000A46204600F0B8F876BD20680168490622
:1095800003D4016841F040010160E068002830D157
:1095900010E02B4600220121204600F026FA002888
:1095A0003BD1A06B411CA1632168C9680170E08FA9
:1095B000401EE087E08F0228EBDAA06AB0F5005F7A
:1095C00023D12068016841F4805101601DE02B46E1
:1095D00000220121204600F008FA00281DD1206851
:1095E000C068A16B0880A06B801CA063E08F401E48
:1095F000E087E08F0228EADAA06AB0F5005F04D1C4
:109600002068016841F4805101602B46002201214D
:10961000204600F0EAF9002801D0032076BDA06BB7
:10962000E168002905D1411CA1632168C968017066
:1096300005E02168C9680180A06B801CA063E08FF1
:10964000401EE087A06AB0F5005F13D12B460022D0
:109650000121204600F0C9F9002805D0706840F0CB
:1096600002007060032076BD2068C068ADF800007D
:10967000BDF800006068B0F5827F0BD1A068B0F53E
:10968000004F02D0B0F5806F04D12068016821F04E
:109690004001016001207070A06AB0F5005F1ED12A
:1096A00020688068C0061AD52046FFF7C5FC01284F
:1096B00011D1706840F0020070602068016821F4E8
:1096C000005101602068016841F4005101600020F0
:1096D0003070012076BD6FF0100021688860002096
:1096E000307076BD022076BD70B582B00446002091
:1096F000ADF8000004F150056878012803D06878BF
:10970000222840F07081002903D0002A01D0002BCC
:1097100001D1012076BD2878012800F06481012064
:1097200028706878012801D13220687000206860B4
:10973000A263A387E3872163A386E386A064E06432
:10974000A06AB0F5005F09D12068016821F40051DA
:1097500001602068016841F40051016020680168DF
:10976000490603D4016841F0400101606068069E2B
:10977000E168B1F5006F7DD1002805D0B0F5827F9A
:109780000CD1E08E012809D1206B00882168C860C7
:10979000206B801C2063E08E401EE086E08E002857
:1097A0004ED1A06AB0F5005F04D12068016841F491
:1097B00080510160334600220121204600F015F956
:1097C000002840F0C0802068C068A16B0880A06BB2
:1097D000801CA063E08F401EE087BFE0334600227C
:1097E0000221204600F001F9002840F0AC80206BF7
:1097F00000882168C860206B801C2063E08E401EBA
:10980000E08680B2002808D1A06AB0F5005F04D1DC
:109810002068016841F48051016033460022012133
:10982000204600F0E2F8002840F08D802068C068F3
:10983000A16B0880A06B801CA063E08F401EE087B6
:10984000E08E0028CAD16068002840F08780334647
:1098500000220121204600F0C8F8002873D12068BA
:10986000C068A16B0880A06B801CA063E08F401EC5
:10987000E08773E0002805D0B0F5827F0BD1E08E41
:10988000012808D1206B411C216300782168C86041
:10989000E08E401EE086E08E002846D1A06AB0F53A
:1098A000005F04D12068016841F4805101603346B3
:1098B00000220121204600F098F8002843D12068BA
:1098C000C068A16B0870E08F401EE08746E0334619
:1098D00000220221204600F088F8002833D1206BB6
:1098E000411C216300782168C860E08E401EE0863C
:1098F00080B2002808D1A06AB0F5005F04D12068CA
:10990000016841F480510160334600220121204664
:1099100000F06BF8002816D1A06B411CA1632168F0
:10992000C9680170E08F401EE087E08E0028CED12C
:109930006068002812D1334600220121204600F041
:1099400054F8002801D0032076BDA06B411CA16310
:109950002168C9680170E08F401EE087A06AB0F5F9
:10996000005F13D1334600220121204600F03DF86C
:10997000002805D0686840F002006860032076BDCA
:109980002068C068ADF80000BDF800003346012231
:109990008021204600F029F8002805D0686840F0B2
:1099A00010006860032076BD01206870A06AB0F5E1
:1099B000005F15D120688068C00611D5686840F046
:1099C000020068602068016821F40051016020688D
:1099D000016841F40051016000202870012076BD2B
:1099E0000020287076BD022076BD2DE9F0410446A6
:1099F0000D4690461E46FAF7A0F90746B8F1000F4B
:109A000027D1206880682840A84251D016F1010F64
:109A1000F7D0002E04D0FAF790F9C01B8642F0D29E
:109A20002068416821F0E00141602068016821F070
:109A300040010160A06AB0F5005F31D12068016883
:109A400021F4005101602068016841F40051016077
:109A500026E0206880682840A84229D116F1010F2D
:109A6000F7D0002E04D0FAF768F9C01B8642F0D276
:109A70002068416821F0E00141602068016821F020
:109A800040010160A06AB0F5005F09D1206801685B
:109A900021F4005101602068016841F40051016027
:109AA00004F150000121417000210170032000E009
:109AB0000020BDE8F08100000EB400B582B003A91B
:109AC000009102466B460121034878440A30F7F7BB
:109AD000DFFD06BC5DF810FBE705000080B500F077
:109AE00002F8002002BD80B50D48FEF77BFF00F0B4
:109AF00002F8002002BD80B510220A490848FEF78E
:109B0000F3FF002002BD0346002211460648FFF77E
:109B100038BA0346002210210348FFF732BA00008A
:109B2000881300201C110020E813002003000020EF
:109B300013F0030F09D0521E22BF13F8010B11F8C6
:109B400001CBB0EB0C00F3D07047121F22BF53F8CB
:109B5000040B51F804CB6045F7D0121D0AD200BAAD
:109B60009CFA8CFCB0EB0C0038BF6FF0000088BF93
:109B700001207047521E22BF13F8010B11F801CBD0
:109B8000B0EB0C00F6D0521C08BF10467047000026
:109B900010B58AB0184C194820631C30606300204F
:109BA00005900690012007900020009001900290FF
:109BB00003900490012008901C20099069462046DB
:109BC000F9F791FC0020216B4860216BC8600420EC
:109BD000216B88600820216B086100220146206B00
:109BE0001430FFF77DFB2068416941F002014161BB
:109BF00000200AB010BD0000A0110020E0110020DC
:109C00000A22002100F0ECB80CB41CB5044604A8EC
:109C100001900A46009401AB694607487844183021
:109C2000F7F736FD009A0021117000285CBF0098FC
:109C3000001B16BC5DF80CFB0F7AFFFF16B504463F
:109C40000A46009401AB6946064878441630F7F797
:109C50001FFD009A0021117000285CBF0098001BB6
:109C600016BD00BFE379FFFF0CB438B50C4604A95C
:109C7000009100F0DFF805466B462246294606486B
:109C800078441430F7F704FD0446284600F0D3F872
:109C9000204632BC5DF80CFB0F0400002DE9F04FAC
:109CA00085B004461E000D4690461CBF0020306063
:109CB000A14601E009F1010999F8000000F0BCF8A3
:109CC0000028F7D199F800002D2816BF2B2819F885
:109CD000017B2B27B8F1000F55D4B8F1010F52D0FA
:109CE000B8F1250F4FDAB8F1010F0DDBB8F1100F05
:109CF00004BF99F80000302802BF99F8010040F035
:109D00002000782814D10EE099F80000302818BF00
:109D10004FF00A080CD199F8010040F02000782893
:109D200004D14FF0100809F1020901E04FF00808D2
:109D3000CDF8109001E009F1010999F800003028F0
:109D4000F9D00FF2A00B4FF0000ACDF80C908DF86F
:109D500008B00AE09DF80810CDF804A0401AC0B27F
:109D6000009008FB0A0A09F1010999F8000000F0C7
:109D70006DF8014642465846F8F776FD0028E9D1CD
:109D80000498484503D105B12C60002025E00FF26E
:109D90007C01039818F80110A9EB0000401A14D4B4
:109DA000012808DA0098BAEB000004D30199B0FB4F
:109DB000F8F0884209D000F053F8222101600EB17A
:109DC000012030604FF0FF3A03E02D2F08BFCAF1A9
:109DD000000A0DB1C5F80090504605B0BDE8F08FFF
:109DE00000235BE73031323334353637383961623E
:109DF000636465666768696A6B6C6D6E6F707172BB
:109E0000737475767778797A000000000000211568
:109E1000110E0D0C0B0B0A0A09090909090808089B
:109E200008080808070707070707070707070707BE
:109E3000070000007047704710B504460120F9F78D
:109E40001BFA2046BDE8104000F010B810B50446DB
:109E50000120F9F711FA2046BDE8104000F010B8D3
:109E60000148F9F7B7BA0000A4000020A0F10901E9
:109E7000052901D3202801D1012070470020704717
:109E8000A0F141011A2938BF2030704780B5F9F799
:109E90004FFFBDE80140FAF763BA2648FEF774B9F0
:109EA0002548FEF771B910B5012024490870244CEB
:109EB000002084F838000A2201462046F9F772FC97
:109EC0002046BDE81040F9F72ABD80B501201D49A4
:109ED0000870FCF7E7FBFDF778F81B48BDE8024087
:109EE000FBF793BF19488168491C81600022144B1D
:109EF00083F83820012242700A22B1FBF2F202EB11
:109F00008203B1EB430104D1012101704168491C76
:109F100041600F48FBF779BF80B50E480068C0B2BA
:109F2000FCF73AFA0C48BDE80240FAF73ABF0B4892
:109F3000FAF737BF18130020501300206F140020C9
:109F4000A011002070140020A01200204C1400204A
:109F5000DC120020044C004020120020601200207F
:109F60001148016841F00101016041680F4A114048
:109F7000416001680E4A11400160016821F48021AE
:109F80000160416821F4FE014160016821F0A051A7
:109F900001604FF47F0181600021C1624FF00060D9
:109FA0000449086070470000001002400000FFF004
:109FB000FFFFF6FE08ED00E019E050F8041BCB07A8
:109FC00044BFA9F101035918121F0023042A41F8C4
:109FD000043BF9D25FEA827C0B4604D54FF0000CBB
:109FE000A1F800C09B1CD10744BF0021197050F894
:109FF000042B002AE1D1704730B5016842688468BB
:10A00000091801EB5203D20748BF4C440C30994267
:10A0100000D130BD11F9012B11F8015B002A04F8C1
:10A02000015B02D5521CF9D1F1E7521EF4D5EEE7DF
:10A0300010B5074979441831064C7C44163404E0C5
:10A040000A68081D511888470146A142F8D110BD81
:10A05000080000002400000061FFFFFFC40C0000A6
:10A06000B00700200000000091FFFFFF800100000A
:10A07000E00000000000002000F00BF8002801D0F4
:10A08000FFF7D6FF0020C046C046F9F776FE00F085
:10A0900002F80120704700F001B80000074638467A
:10A0A000F7F7ECFAFBE738B504460D46214628469B
:10A0B000F9F756FEA84218BF0024204632BD38B535
:10A0C00004460D46284600F005F8A84218BF0024B3
:10A0D000204632BD0149F9F743BE00BF24000020ED
:10A0E0000148804701480047619F0008F1A000082F
:10A0F000C046C046C046C046FFF7BEFFFFF7FEBFE2
:10A10000FFF7FEBFFFF7FEBFFFF7FEBFFFF7FEBF83
:10A11000FFF7FEBFFFF7FEBFFFF7FEBFFFF7FEBF73
:10A12000FFF7FEBFFFF7FEBFFFF7FEBFFFF7FEBF63
:10A13000FFF7FEBFFFF7FEBFFFF7FEBFFFF7FEBF53
:10A14000FFF7FEBFFFF7FEBFFFF7FEBFFFF7FEBF43
:10A15000FFF7FEBFFFF7FEBFFFF7FEBFFFF7FEBF33
:10A16000FFF7FEBFFFF7FEBFFFF7FEBFFFF7FEBF23
:10A17000FFF7FEBFFFF7FEBFFFF7FEBFFFF7FEBF13
:10A18000FFF7FEBFFFF7FEBFFFF7FEBFFFF7FEBF03
:10A19000FFF7FEBFFFF7FEBFFFF7FEBFFFF7FEBFF3
:10A1A000FFF7FEBFFFF7FEBFFFF7FEBFFFF7FEBFE3
:10A1B000FFF7FEBFFFF7FEBFFFF7FEBFFFF7FEBFD3
:10A1C000FFF7FEBFFFF7FEBFFFF7FEBFFFF7FEBFC3
:10A1D000FFF7FEBFFFF7FEBFFFF7FEBFFFF7FEBFB3
:10A1E000FFF7FEBFFFF7FEBFFFF7FEBF0F7E306D2C
:10A1F00079335B5F707F7B771F4E3D4F47F70000E1
:10A2000020F90022A24A0402040101C8100020180B
:10A21000110020C8100020C8100020C810002061C4
:10A2200000002048000020E0001F02080202781011
:10A230000020C8100020781000207810002078102E
:10A240000020A100002088000020C000F8FFDC00F2
:0CA25000FAFF8100D10004FF010100FFB3
:040000050800A0F15E
:00000001FF
